:020000040800F2
:10000000886601248904000801920008297E0008FE
:10001000F991000809190008F9CE00080000000055
:100020000000000000000000000000000996000829
:10003000B11D00080000000019920008D99A0008BC
:10004000A3040008A3040008A3040008A3040008F4
:10005000A3040008A3040008A3040008A3040008E4
:10006000A3040008A3040008A30400081119000851
:100070002119000831190008411900085119000818
:100080006119000871190008A3040008A3040008FE
:10009000A3040008A3040008A3040008A3040008A4
:1000A000A3040008A3040008A3040008A304000894
:1000B000A3040008A3040008A3040008A304000884
:1000C000A3040008A3040008A3040008A304000874
:1000D000A3040008A3040008A3040008A304000864
:1000E000A3040008A304000800000000A304000803
:1000F000A3040008A3040008A3040008A304000844
:10010000A3040008A3040008A3040008A304000833
:10011000A3040008A3040008A3040008A304000823
:10012000A3040008A3040008A3040008A304000813
:10013000A3040008A3040008A3040008A304000803
:1001400000000000000000000000000000000000AF
:10015000A3040008A3040008A3040008A3040008E3
:10016000A3040008A3040008A3040008A3040008D3
:10017000A3040008A3040008A3040008A3040008C3
:10018000A3040008A3040008A3040008A3040008B3
:10019000A3040008A3040008A3040008A3040008A3
:1001A000A3040008A3040008A3040008A304000893
:1001B000A3040008A3040008A3040008A304000883
:1001C000A3040008A3040008A3040008A304000873
:1001D000A304000809920008A3040008A30400086F
:1001E000A3040008A3040008A3040008A304000853
:1001F000A3040008A3040008A3040008A304000843
:10020000A3040008A3040008A3040008A304000832
:10021000A3040008A3040008A3040008A304000822
:10022000A3040008A3040008A304000800000000C1
:10023000A3040008A304000800000000A3040008B1
:10024000A3040008A3040008A3040008A3040008F2
:10025000A3040008A3040008A3040008A3040008E2
:10026000A3040008A3040008A3040008A3040008D2
:10027000A3040008A3040008A30400080000000071
:10028000A3040008A3040008A30400080000000061
:1002900000000000A304000800F002F800F0CAF813
:1002A00014A696E8000CB244B344DA4501D100F03C
:1002B000C1F8BAE80F000FA696E83000A5EB0405D8
:1002C00004EB0607AAEB0704A7F101074FEA15158F
:1002D0004FEA3414A4F10104AC4201D300F0AAF8AF
:1002E00013F0010F18BFFB1A43F0010300F001F8EF
:1002F000DBE71847ACE20000CCE200000A444FF014
:10030000000C10F8013B13F0070408BF10F8014B74
:100310001D1108BF10F8015B641E05D010F8016BB9
:10032000641E01F8016BF9D113F0080F1EBF10F81D
:10033000014BAD1C0C1B09D16D1E58BF01F801CB40
:10034000FAD505E014F8016B01F8016B6D1EF9D5C3
:100350009142D6D37047000070470000002300246C
:1003600000250026103A28BF78C1FBD8520728BFC5
:1003700030C148BF0B6070476E2900F05F82702962
:1003800000F0A38366290EF04F8065290EF04C80A3
:1003900067290EF0498061290EF0488003681B0A26
:1003A00028BF41F08001692900F00C82642900F027
:1003B0000982752900F006826F2900F031837829BF
:1003C00000F06F83E92900F0CB82E42900F0C882B5
:1003D000F52900F0C582EF2900F02E83F82900F0FE
:1003E0006E830368DB0928BF41F08001632901F0B7
:1003F0007380732901F07880E32901F08380F32969
:1004000001F08880002070471FB50EF000F800F062
:1004100006F901F0D9F80400002000210DF09CFF3E
:10042000401C6060002000210DF080FFE0601FBDD7
:1004300010B510BD01F09AF81146FFF7E5FF0CF07A
:10044000F3FD01F077F903B4FFF7F2FF03BC01F00D
:10045000B9F900000B49D1F800C04A685CF8043BC8
:100460001068184442F8040B8C4528BFA1F1DC0C3D
:100470008A4228BFA1F1DC02C1F800C04A6020F026
:1004800000407047B40200240948804709480047EB
:10049000FEE7FEE7FEE7FEE7FEE7FEE7FEE7FEE734
:1004A000FEE7FEE704480549054A064B7047000091
:1004B000219C00089902000888E60024886601242F
:1004C000882601248826012453EA020C00F0698062
:1004D0002DE9F04B4FF00006002B1FBFB3FA83F558
:1004E00003FA05F424FA05F65E4012BF1643B2FA89
:1004F00082F502FA05F4C5F120051EBF22FA05FCBB
:1005000044EA0C04203556EA044C4FEA144418BF60
:10051000641C4FF000084FF00009904271EB030C8F
:1005200039D3002919BFB1FA81F701FA07F6B0FAF9
:1005300080F700FA07F6C7F120071EBF20FA07FC74
:1005400046EA0C062037B6FBF4FCA7EB0507103F84
:1005500007F01F0BCBF120062CFA06F60CFA0BFB6A
:1005600044BFB3460026202FA4BF5E464FF0000BC9
:100570005BEA060C08BF4FF0010B19EB0B0948EBC7
:100580000608ABFB027C06FB02CC0BFB03CCC01BBA
:1005900071EB0C01C1E70B46024641464846BDE8F7
:1005A000F08B13B5084318BF4FF0FF300146AFF38F
:1005B0000080BDE81C4070477CB51D4616460C0007
:1005C000009007D04142A14202D32044401E01E0E6
:1005D0004FF0FF30064B7B442A4669460190304677
:1005E00000F045F9002C02D0009A002111707CBD6A
:1005F000BB0200000B4910B5A1F17C020A4CC2E914
:100600003712372106E000EB104342F82130074B48
:1006100000FB03400B1EA1F10101F4DC10BD012021
:10062000E8E7000054020024E119D666CD0D010070
:1006300010B5203AC0F00B80B1E81850A0E818506F
:10064000B1E81850A0E81850203ABFF4F5AF5FEABF
:10065000027C24BFB1E81850A0E8185044BF18C964
:1006600018C0BDE810405FEA827C24BF51F8043B0B
:1006700040F8043B08BF7047D20728BF31F8023B5F
:1006800048BF11F8012B28BF20F8023B48BF00F8F3
:10069000012B70474FF0000200B513469446964672
:1006A000203922BFA0E80C50A0E80C50B1F1200185
:1006B000BFF4F7AF090728BFA0E80C5048BF0CC033
:1006C0005DF804EB890028BF40F8042B08BF704791
:1006D00048BF20F8022B11F0804F18BF00F8012B03
:1006E000704770477047704710B500F0BDFA00685A
:1006F00010BD10B5044600F0B7FA046010BD70B527
:10070000044685690068C10601D5302600E0202630
:10071000C00707D070BDD4E9012130469047206A58
:10072000401C20626D1EF6D570BD70B5044685690B
:100730000078C00707D170BDD4E90121202090477F
:10074000206A401C20626D1EF6D570BD09684A05FE
:1007500001D540B27047C905FCD500B270470968A1
:100760004A0501D5C0B27047C905FCD580B27047B3
:1007700070B50C460546012A05D02878800600D5BC
:10078000EA69002302E0012305E05B1C934202D2E8
:10079000E05C0028F9D1A869E618C01AA861286AA7
:1007A000184428622846FFF7AAFF04E0D5E9012192
:1007B00014F8010B9047B442F8D32846FFF7B5FF71
:1007C00070BD00002DE9F04106460024106875292F
:1007D000314616A510D0FFF7B9FF002802DA4042D3
:1007E00013A507E031688A0701D512A502E0490781
:1007F00004D511A5012401E0FFF7B1FF00210A2271
:1008000006F1240709E0B0FBF2FCB0FBF2F302FBB7
:100810001C00303078541846491C0028F3D1234678
:100820002A463046BDE8F04100F067BA00000000FB
:100830002D0000002B00000020000000116802685D
:10084000006A530501D508700AE0D30501D5088078
:1008500006E0130603D5C217C1E9000200E00860F4
:100860000120704701694A1C02610878704700B591
:100870008FB0CDE901310021059105497944CDE9D9
:1008800003101146684600F02BF90FB000BD0000C0
:10089000E5FFFFFFD1E900239A4202D2531C0B600F
:1008A000107070472DE9FF5F15468A460446DFF851
:1008B000AC80F8440027D8E900103E46CDE900108E
:1008C00010E03AF816106A4602A800F027FE411C14
:1008D00007D02178890603D5E269391891420DD8ED
:1008E0000744761C2078800602D5E069B84205DD11
:1008F000AE42E6DB3AF816000028E2D1A069C01B40
:10090000A0612046FFF7FBFED8E90010CDE90010FA
:10091000002017E03AF818106A4602A800F0FEFD21
:10092000B0F1FF3F81460BD000250DF1080B05E02B
:10093000D4E901211BF8050090476D1C4D45F7D304
:1009400008F10100B0428046E4DB206A38442062AE
:100950002046FFF7EAFEBDE8FF9F0000AADB00008B
:100960002DE9F0418046D21D22F007020025D2E990
:100970000002F52915A614D0011E72F1000106DA55
:100980000023D0EB030063EB020211A608E0D8F8C5
:1009900000108B0701D50FA602E0490701D50EA66E
:1009A00001251146002408F1240704E000F060F955
:1009B00030323A55641C50EA0102F7D12B463246D8
:1009C00021464046BDE8F04100F097B90000000024
:1009D0002D0000002B0000002000000030B400219A
:1009E00000F1240408E002F00705D208303542EA9D
:1009F0004372DB086554491C52EA0305F3D10468CD
:100A0000002310A2250708D504F020040C4304D0CD
:100A1000C46901230CA2641EC46130BC00F06DB92E
:100A200010B5044621461068FFF799FE024620469D
:100A3000BDE810400023D1E7D21D22F00701D1E923
:100A40000023CBE70000000030000000F0B40D46AA
:100A50000188090502D5214C7C4402E01F4C7C44EE
:100A60000E34002100F1240608E002F00F071209FD
:100A7000E75D42EA03721B097754491C52EA0307F7
:100A8000F3D102780023120704D5702D06D009B1E6
:100A9000022311342246F0BC00F02FB90123103498
:100AA000F8E770B504460D4621461068FFF757FE7B
:100AB000024629462046BDE870400023C6E7D21D05
:100AC00022F00703D3E90023C0E70368126843F06C
:100AD000200303600823C3610023B7E70CDA00009A
:100AE0002DE9F05F894604464FF0000ADFF874B143
:100AF000FB44C0F820A02046E1688847002874D055
:100B0000252806D0D4E901219047206A401C2062A4
:100B1000F1E700265F462046E16888472028054621
:100B200007DB312D05D2781910F8200C08B10643E7
:100B3000F1E7B00701D526F00406C4F81CA0002791
:100B4000C4F818A02A2D09D028460DF0E7FB38B3C9
:100B500004EB8708303DC8F8185019E059F8041B19
:100B6000204604EB87029161E1688847012F054622
:100B700018D1E069002820DA26F020061DE0D8F818
:100B8000180000EB800005EB40003038C8F8180072
:100B90002046E168884705460DF0C0FB0028EED1ED
:100BA000012F0AD02E2D08D12046E16888477F1CEE
:100BB0000546022F46F02006C4DBA069002803DAB0
:100BC000404246F00106A061F00701D026F0100671
:100BD0006C2D0BD0682D09D04C2D39D06A2D35D015
:100BE000742D35D07A2D33D016E038E0E1682F46E9
:100BF00020468847B842054609D16C2F26D04FF4CD
:100C00008060E168064320468847054604E06C2F73
:100C10001AD04FF4807006430DB3A5F14100192896
:100C200002D8203546F400664A462946204626600A
:100C30004E46FFF7A1FB80B101280BD0F61D26F030
:100C4000070000F1080956E74020E4E78020D8E7D4
:100C50000020D6E706F104094DE7284652E7206A4E
:100C6000BDE8F09F9CD9000000487047BC020024FA
:100C700030B5B0F10A0271F100034FEA900E4EEA6E
:100C8000817EB0EB0E0061EB91014FEA101E4EEA3F
:100C9000017E10EB0E0041EB11114FEA102E4EEACF
:100CA000016E10EB0E0041EB11214FEA104E4EEA9F
:100CB000014E10EB0E0041EB1141401841F10001D3
:100CC0004FEAD00040EA41704FEAD1014FEA810477
:100CD00044EA907410EB800544EB01046D1944EB79
:100CE0000404521BA3414FF0000348BF0A3200D551
:100CF00030BD401C41F1000130BD2DE9F0470D46EB
:100D000099469246044600F124080168880604D5F5
:100D1000E06921F01001216000E00120A84201DD1E
:100D2000471B00E00027A1697A1902EB0900081AA5
:100D3000A0612078C00602D42046FFF7E0FC002620
:100D400008E0D4E901211AF806009047206A401C07
:100D5000761C20624E45F4DB2078C0060AD520467A
:100D6000FFF7CDFC06E0D4E9012130209047206A4E
:100D7000401C2062381EA7F10107F4DC07E0D4E92B
:100D8000012118F805009047206A401C2062281EA7
:100D9000A5F10105F3DC2046FFF7C7FC207800062B
:100DA00002D50220BDE8F0870120FBE72DE9FF4FC7
:100DB0000C461E464FF0FF378BB0D2E90001DDF83C
:100DC00060800A908A46C1F30A5505B93D46002164
:100DD00008464FF00000BAF1000F00F4400005DAB9
:100DE00000EB80004FF4400101EA50004FEA9059B7
:100DF000B9F1010F00DDB9460A9850EA4A000ED059
:100E000044F61050A5F2FF3545432F14B8F1000FFA
:100E10001ED07542291E1EDDC9F100021CE0B8F18A
:100E2000010F4FF0000001D0302103E0F24305E054
:100E30002154401CB042FBDB3046002200212154EB
:100E40000B99C1F80880C1E900200FB0BDE8F08F10
:100E5000BD1B6D1CDEE74A4600DA694206A800F0B9
:100E6000F7FB06AB93E8070003AB83E807005046A7
:100E70000A990CF067FD8DE80700A0F500501F38B7
:100E800000900398002D0ADD42F21F014A460844F3
:100E9000002303A9039068460CF0D0FF09E0A0F5F9
:100EA00000504A461F38002303A9039068460CF0FF
:100EB000DAFF8DE807000004000C03D04FF0FF308C
:100EC000410800E01046B8F1000F03D00022009264
:100ED00015461EE0751E05D4FFF7CAFE3032625576
:100EE0006D1EF9D5B3460122084302D000227F1CB3
:100EF00004E02078302801D100227F1E002A0997C3
:100F000084D01DE0112D07DAFFF7B2FE30326255B2
:100F10006D1C50EA0102F5D1084302D00098C8B117
:100F20000EE00021681E05E0235C625C63542254DD
:100F3000401E491C8142F7DBAB46A81B401E0990AE
:100F4000002004F80B000B98099AC0F80880C0E94B
:100F5000002B7AE711264FF0000857E72DE9F04FF4
:100F600088460446D21D22F0070191B0D1E9000164
:100F7000CDE90A010DF0AEF802460B98C00F01D082
:100F80002D2007E02068810701D52B2002E02021D9
:100F900001EAC000032A099001D0072A05DB0346B5
:100FA0004146204600F014FB0BE12078800601D575
:100FB000E06900E00620B8F1650F814606D0B8F17F
:100FC000660F18D0B8F1670F70D131E00020B9F189
:100FD000110F009001DB112301E009F101030AAABE
:100FE00001A90CA8FFF7E2FEDDE90C70002609F16B
:100FF0000105834647E001204B4600904FF0004733
:101000000AAA01A90CA8FFF7D1FEDDE90DB00C99E1
:101010005D46002610B909F101000D18B9EB050075
:1010200003D4C0F1FF3609F10105A5EB09002BE05F
:10103000B9F1010F01DA4FF001090020B9F1110FE8
:101040000090484601DD112300E003460AAA01A9E9
:101050000CA8FFF7ABFEDDE90C704D460026834679
:10106000207800070AD4AB4500DA5D4601A8012DBF
:1010700004DD411911F8011C302907D04F4502DA6F
:1010800017F1040F04DA012082460FE06D1EEEE72F
:10109000002F02DCED1B3E4403E0781CA84200DD7B
:1010A0007D1CB81B00F1010A4FF0004720780007B3
:1010B00003D4AA4501DB4FF0FF3A0021B7F1004FFE
:1010C0000DF143088DF8431024D002202B23002F6C
:1010D00001DA7F422D230A21021EA0F1010000DC6B
:1010E0005FB197FBF1FC97FBF1F201FB1C7C17460B
:1010F0000CF1300C08F801CDEEE7A8F10100037007
:101100002188090501D5452100E06521A0F10108EC
:1011100000F8011C09980FA9A1EB0807FF1D00B1F9
:101120000120411901EBEA70A1693844081A401EF8
:10113000A0612078C00602D42046FFF7E0FA0998A3
:1011400028B1D4E901219047206A401C2062207810
:10115000C00622D52046FFF7D2FA1EE0002E04DB9F
:10116000B34502DD01A8805D00E03020D4E9012113
:101170009047206A401C2062761CAAF101005FEAB9
:10118000000A0AD100F020FAC0680168405CD4E986
:1011900001219047206A401C2062281EA5F101050C
:1011A000DCDC07E0D4E9012118F8010B9047206A44
:1011B000401C2062381EA7F10107F3DC2046FFF730
:1011C000B4FA032011B041E62DE9F04F04460D4674
:1011D000D21D22F0070089B0D0E900974846394671
:1011E0000CF078FF0246F80F01D02D2307E02068AD
:1011F000810701D52B2302E0202101EAC0038DF8ED
:1012000020300BB1012000E00020032A824601D0EB
:10121000072A04DB2946204600F0DAF93FE120786E
:10122000800601D40D2500E0E569C7F30A560D2DAF
:1012300049DA00214FEA175B08464FF00000002F03
:1012400000F4400007DA00EB80004FF4400100EBAF
:10125000D07001EA60008115012901DD4FF0FF31F6
:1012600000224FEA850CBCF1180F06D31346ACF1EF
:1012700018004FF08052C24003E04FF4801323FA6D
:101280000CF30CF10C0CBCF1200F04D3ACF1200CCE
:1012900009FA0CF001E007FA0CF000294FF00048C1
:1012A00001DD18B90FE00ED140450CD319EB02094E
:1012B0005F4121B9404502D19F4329EA0209BBEBB6
:1012C000175F00D0761C2088000502D57B48784443
:1012D00002E07A487844193808AA302302F80A3024
:1012E000037C0AF10101002E0AF1020A53546A46F6
:1012F00002DC4FF0300101E04FF031014FF0010806
:101300008DF8001002D0A6F2FF3603E059EA47013B
:1013100000D06B4E002D02DC2178090704D54FF078
:1013200002082E218DF80110C44600210BE0C7F3FE
:1013300003433F01C35C491C6D1E02F808300529B8
:1013400008F1010801DA002DF1DC00210CE000EBCE
:101350001973491C1B786D1E082902F808304FEAE2
:10136000091908F1010801DA002DF0DC21688B066B
:1013700002D516E0A8F10108E04505DD02EB0803FF
:1013800013F8013C302BF5D0B8F1000F09DD02EB6A
:10139000080313F8013C2E2B03D1090701D4A8F14F
:1013A0000108002D05DD3E2102F808106D1E08F130
:1013B0000108407C002E02F8080008F1010804DA58
:1013C0002D20764202F8080002E02B2002F80800E7
:1013D0000A214FF47A70864208F101080BDB96FB74
:1013E000F0F3303302F8083096FBF0F308F101080F
:1013F00000FB136601E0642E0CDB642096FBF0F327
:10140000303302F8083096FBF0F308F1010800FBD6
:10141000136601E00A2E06DB96FBF1F0303002F88D
:10142000080008F1010896FBF1F001FB1060303074
:1014300002F80800A16908F1010808EB050202EBB7
:101440000A00081AA0612078C00602D42046FFF7DF
:1014500056F9216A08AE01EB0A00206204E0D4E9E3
:10146000012116F8010B9047BAF1010AF7D2207852
:10147000C00602D52046FFF742F96E4609E016F88D
:10148000010B3E280FD0D4E901219047206A401C6F
:101490002062B8F10108F2D22046FFF746F909B000
:1014A0000320BDE8F08F206A2844206203E0D4E9DD
:1014B0000121302090476D1EEBD3F8E7E2D1000008
:1014C00002FCFFFF10B5436913B1AFF3008001E0E8
:1014D000FFF74EF9012010BD127800F124010A70C7
:1014E00000224A700122EDE711684FF0FF32E9E770
:1014F00010B5436913B1AFF3008001E0FFF7D2F9F3
:10150000012010BD128800F1240182840022C284CF
:101510000122EDE711684FF0FF32E9E72DE9F041D4
:1015200016460C46054600F047F8036893F801019B
:10153000012807D0FF2C12D8185D80B101202C7033
:10154000BDE8F081D3F807013246214603F20713C4
:10155000C7182846BC46BDE8F041002360474FF05D
:10156000FF30EDE700487047BC0200247546FFF7E6
:10157000F9FFAE4605006946534620F00700854650
:1015800018B020B5FEF78EFFBDE820404FF00006F2
:101590004FF000074FF000084FF0000BAC46ACE8EE
:1015A000C009ACE8C009ACE8C009ACE8C00921F04A
:1015B00007018D467047000010B500F005F8001DCA
:1015C00010BD00BF95CD000000487047DC0200242C
:1015D0002DE9F0411F46044603260168072A01F45D
:1015E000006004DB08B116A505E016A503E008B10C
:1015F00015A500E015A521F010002060A069C01E0F
:10160000A0610FB1401EA0612046FFF778F84FB1EE
:10161000D4E9012138469047206A401C2062C01C52
:10162000206206E0206AFAE7D4E9012115F8010BEF
:101630009047761EF8D22046FFF777F8BDE8F08194
:101640004E414E006E616E00494E4600696E660066
:101650002DE9F047814616468AB0354878440DC8D2
:101660008DE80D0032487844801C03AC0DC884E836
:101670000D0041F69B300844372190FBF1F290FBBE
:10168000F1F5A5F1800501FB12041B3C02D5644273
:10169000012000E00020DFF898A080460027FA44EF
:1016A000AAF1BE0A0EE0E0070AD03246684607EB10
:1016B000470101230AEB81010CF0D5FB8DE80700FF
:1016C00064107F1C002CEED1194F7F44AE3F19E00F
:1016D000E80715D007EB04100DF1180A90E80E008A
:1016E0008AE80E00C068F04201D19819089032468D
:1016F000012306A903A80CF0B6FB03AB83E807009F
:101700006D10641C002DE3D14FF001033246694691
:10171000B8F1000F03A802D00CF090FB01E00CF030
:10172000A2FBC9E90001C9F808200AB0BDE8F087AA
:10173000E4CE000010B50446AFF300802046BDE8BB
:101740001040FEF780BE000030B44FF0013C50F86E
:10175000042BCCFA52F451F8043BD51A20D1FCB931
:1017600050F8042BCCFA52F451F8043BD51A17D197
:10177000B4B950F8042BCCFA52F451F8043BD51A02
:101780000ED16CB950F8042BCCFA52F451F8043B4A
:10179000D51A05D1002CDAD030BC4FF000007047CC
:1017A00029BAB1FA81F111F01801D1F12000844079
:1017B000F2D1CA40CB4012F0FF0213F0FF0330BC5D
:1017C000D01A704701491820ABBEFEE72600020080
:1017D0007047000000000000B0B50446006842F207
:1017E000001140F48070C4F20201884218D142F224
:1017F0000830C4F20200006810F4403F18D005F031
:10180000FFFC61680546B1F5803F05D0B1F5403F6A
:101810002CD0B1F5003F2AD1080CB5FBF0F526E03D
:1018200046F20830C5F60200006810F4403FE6D1E9
:101830004FF40020002104F02FFC61680546A1F55B
:1018400080224FEAB2420A2A11D8DFE802F00707E5
:101850000707070755535951570000BF6FF00100A4
:1018600000EA5140B5FBF0F501E000BFAD0802F021
:101870002FFA41F2030188420ED8206842F6015146
:10188000C0F231118D4281682CBF41F4807121F486
:1018900080718160B0BD00BF4BF62140C0F2BE0038
:1018A000854205D82068816821F440718160B0BD0F
:1018B00047F64100C0F27D10854207D8206801221A
:1018C000816862F309218160B0BD00BF20684FF2DA
:1018D0008101C0F2FA218D42816805D8022262F3AB
:1018E00009218160B0BD00BF41F440718160B0BD8D
:1018F000ED09BCE76D09BAE72D09B8E72D0AB6E78F
:10190000AD09B4E700000000FEE7000000000000A1
:1019100044F2A860C2F2004000F0D6BF0000000010
:1019200044F23060C2F2004000F0CEBF0000000080
:1019300044F29870C2F2004000F0C6BF0000000000
:1019400044F22070C2F2004000F0BEBF0000000070
:1019500044F61000C2F2004000F0B6BF00000000E4
:1019600044F68800C2F2004000F0AEBF0000000064
:1019700044F2B850C2F2004000F0A6BF00000000E0
:1019800040F20F42D0F800C0C4F20202944511DCCC
:101990006F22C4F20202944522DC3F22C4F202020A
:1019A000944539DC1022C4F2020294455AD0282210
:1019B00054E000BF40F26F42C4F2020294451BDCC7
:1019C00040F23F42C4F2020294452DDC40F2104244
:1019D000C4F20202944545D040F228423EE000BFE6
:1019E0009F22C4F20202944528DC7022C4F2020253
:1019F000944537D0882231E040F29F42C4F202027F
:101A0000944523DC40F27042C4F20202944529D08E
:101A100040F2884222E000BF4022C4F20202944514
:101A200020D058221AE000BF40F24042C4F2020225
:101A3000944517D040F2584210E000BFA022C4F2F3
:101A4000020294450ED0B82208E000BF40F2B8422E
:101A5000C4F20202944505D040F2A042C4F2020250
:101A6000944517D10CF0F8024AF6AB23103ACAF6A7
:101A7000AA23A2FB03310AA35F2AC1F302115B5C14
:101A800040F2FF312CEA0101C36588BF0431816552
:101A9000084670472CF0FF0181650846704700BF7B
:101AA000000610160006101670B540F26F44D0F80C
:101AB00000C0C4F20204D0F858E0A4451ADC9F2507
:101AC000C4F20205AC4533DC5725C4F20205AC452F
:101AD0005ADC1025C4F20205AC4500F09880282598
:101AE000C4F20205AC4500F092804025C4F2020524
:101AF0008AE000BF45F22F45C5F60205AC452DDC56
:101B000040F2B745C4F20205AC454BDC40F27045EB
:101B1000C4F20205AC457AD040F28845C4F2020511
:101B2000AC4574D040F2A045C4F202056CE000BFA1
:101B300040F22745C4F20205AC4543DCA025C4F2BF
:101B40000205AC4563D0B825C4F20205AC455ED0B1
:101B500040F21045C4F2020556E000BF45F26B4565
:101B6000C5F60205AC453FDC45F23045C5F6020539
:101B7000AC454CD045F24445C5F60205AC4546D0CF
:101B800045F258453EE000BF5825C4F20205AC4579
:101B90003DD07025C4F20205AC4538D08825C4F28A
:101BA000020531E040F2B845C4F20205AC452ED042
:101BB00045F20845C5F60205AC4528D045F21C455E
:101BC00020E000BF40F22845C4F20205AC451ED01B
:101BD00040F24045C4F20205AC4518D040F25845E9
:101BE000C4F2020510E000BF45F26C45C5F60205DF
:101BF000AC450CD045F29445C5F60205AC4506D07F
:101C000045F28045C5F60205AC4540F0D080456EF2
:101C1000C66E002E866E6E601CBFD0E91C566E60CC
:101C2000A44515DC9F24C4F20204A4452CDC5724EF
:101C3000C4F20204A44551DC1024C4F20204A445F9
:101C40007AD02824C4F20204A44575D040246FE061
:101C500045F22F44C5F60204A44529DC40F2B744FE
:101C6000C4F20204A44545DC40F27044C4F202040C
:101C7000A44561D040F28844C4F20204A4455BD07C
:101C800040F2A04454E000BF40F22744C4F20204F2
:101C9000A4453FDCA024C4F20204A4454CD0B824DF
:101CA000C4F20204A44547D040F2104440E000BF13
:101CB00045F26B44C5F60204A44555DC45F23044B8
:101CC000C5F60204A44561D045F24444C5F60204B9
:101CD000A4455BD045F2584454E000BF5824C4F2F8
:101CE0000204A44528D07024C4F20204A44523D0E1
:101CF00088241DE040F2B844C4F20204A4451BD07D
:101D000045F20844C5F60204A4453FD045F21C4400
:101D100038E000BF40F22844C4F20204A4450BD0CE
:101D200040F24044C4F20204A44505D040F25844B5
:101D3000C4F20204A4453AD18468C06D00F01F00CB
:101D40003F2505FA00F0CEF80800DCF80000402C32
:101D500020F48020CCF80000CCF8043023D1CCF85B
:101D60000820CCF80C1070BD45F26C44C5F6020496
:101D7000A4450BD045F28044C5F60204A44505D025
:101D800045F29444C5F60204A44510D1C46D012562
:101D900004F01F04806805FA04F4CEF804404028DB
:101DA000CCF80430DBD0CCF80810CCF80C2070BD97
:101DB0007047000000000000EFF3108072B600BF13
:101DC000FEE7000000000000B0B540F21C3C40F20D
:101DD000FC3EC2F2004CC2F2004EDCF8042002EBE2
:101DE000420301320EEBC3015EF833300360CD686D
:101DF000C560D5170B69036102EBD55340F2FF159F
:101E0000D1E901E4C0E901E44969416123EA05003F
:101E1000101ACCF80400B0BD90F85020012A01D16E
:101E200002207047B0B582B042F20832002301931D
:101E3000C4F202020093A2F542740368A34227D1C0
:101E40004FF6006C4FF60055CFF6FF7CCFF6FF75CE
:101E500052F80C40535923435B0719D4D1F800E0E2
:101E60001368BEF1000F23F440441FD04B68234396
:101E70001360535952F80C502B43DB0722D11368DF
:101E800040F61F75AB438968194341EA0E0118E01B
:101E9000416D41F0200141650121002280F8502070
:101EA00002B0BDE8B0400846704700BF1460515909
:101EB00052F80C301943C90704D1116840F61F735A
:101EC000994311600021E8E7F0B581B0002200924B
:101ED00090F85020012A03D10221084601B0F0BD3C
:101EE0000768012380F85030BB685B0700F16C8104
:101EF0000C684FF6FF7CB4F1FF3FC0F20F0C4FEAC5
:101F0000946E0FDD94FAA4F314EA0C0FB3FA83F382
:101F100008BFA30E012403F01F0304FA03F3FC69B6
:101F20002343FB614B681F260EF01F02C3F30124FD
:101F300003F01F039E4007EB84049A40256B25EABB
:101F4000060632432263BA68BB6802F0040203F05B
:101F50000803D21840F095800A6807258E68C2F3FE
:101F60004063C2F3045207EB830395405C6906FAB1
:101F700002F224EA05052A435A6141F20002C5F63D
:101F80000042126802F07042B2F1805F32D14A69B9
:101F9000FB680E2606EA530302FA03F30C69042CCD
:101FA00038D007F160020E6806F0F84652F8245067
:101FB000334305F000452B4342F824300B694E7E35
:101FC00052F82350012E25F0004508BF05F10045C9
:101FD00042F823500A7E0B693E69013A03F01F0361
:101FE000B2FA82F226F4F0465209D2029A40324303
:101FF0003A6146E0FA684B69FE68D2064FEA560439
:1020000002D404F00E0201E004F0080293400C69CF
:10201000042CC6D13A6E0B6802F0F8429B069A4235
:1020200018D13A6E22F000423A667A6E02F0F84217
:102030009A4214D0BA6E02F0F8429A4218D1BA6E9F
:1020400022F00042BA66FA6E02F0F8429A4214D0C8
:1020500017E000BF7A6E02F0F8429A42EAD17A6E37
:1020600022F000427A66BA6E02F0F8429A42E6D056
:10207000FA6E02F0F8429A4203D1FA6E22F0004260
:10208000FA66BA68D20752D1CA680B6802F018051E
:1020900003EA0C042CFA05F540F2000CD7F8C060F6
:1020A000C4F2FF7CA6431D40624545EA0602C7F81C
:1020B000C02039D194B193FAA3F2B2FA82F201327C
:1020C00002F01E03092B02F01F0310D8012203EBBC
:1020D00043069A4042EA065315E000BF012202EB94
:1020E000936202F01E030A2B02F01F03EED30122BB
:1020F00003EB43069A400023CFF6206303EB06531D
:102100001A4342F00073C3F340620725C3F304533C
:102110008E6807EB82029D40546906FA03F324EAB5
:1021200005052B4353610B68B3F1FF3F02DD00212E
:102130004FE000BF42F2000146F2083CC4F2020147
:10214000C5F6020C01F5807201F5427697426246AF
:1021500008BF32468F4242F2001508BF324647F4AC
:102160008076C4F20205AE42D2F800E024D18A683B
:10217000D1F808111143C90726D100210EF0E074EF
:10218000CCF684318B4208BF1EF4000128D0002118
:10219000CCF252718B4263D10021B1EB146F5FD14D
:1021A000ACF542718F42C2D1DCF8001021F0E07131
:1021B000214341F0807168E04FF60051CFF6FF7186
:1021C0005CF80110C907D8D0416D41F0200141658C
:1021D0000121002280F85020084601B0F0BD00BF68
:1021E000ACF542718F42A2D1DCF8001042F6635286
:1021F00021F0E071C0F23E52214341F40001CCF8DD
:10220000001040F20801C2F2004109688909A1FBEF
:1022100002129109022202EB41010091009900296A
:102220003FF485AF009901390091009900293FF4EE
:102230007EAF009901390091009900293FF477AFF2
:10224000009901390091009900293FF470AF00997D
:1022500001390091009900294FF00001E2D1B8E75F
:10226000ACF542718F424FF00001B2D10022CCF6A2
:10227000B872934208BF1EF48002AAD1DCF80010A5
:1022800021F0E071214341F48001CCF800104EE7C9
:1022900070B582B0044600284FF0000001902DD0A8
:1022A000606D30B9204600F01FF90020A06584F869
:1022B00050002068816889004FF6C071C5F6FF7133
:1022C00002D582680A4082608268D20031D4826876
:1022D00001F18051114042F6635241F0805181601A
:1022E00040F20801C0F23E52C2F200410968890979
:1022F000A1FB0212012101EB921105E001263046FB
:1023000002B070BD019901390191019989B101991A
:1023100001390191019961B1019901390191019945
:1023200000291FBF019901390191019918BF0029A6
:10233000E8D18168C90009D4616D012641F010011E
:102340006165A16D41F00101A16500E00026816891
:10235000626D02F0100201F004018918616D40F015
:10236000918021F48171023161658168C90728D1AA
:1023700042F2001240F48071C4F20202914242F231
:102380000001C4F2020140F0A5808A68D1F808314A
:102390001A43D20715D101F5807201F5427346F256
:1023A000080C9042C5F6020C1A4618BF0CF5407294
:1023B000884208BF1A466068116821F47C110843FE
:1023C000106001F085FC41F2030100228842A06800
:1023D000A0F1100188BF0122B1FA81F1237F4909E0
:1023E0001140226B617D154616BF4D034A031C2028
:1023F000012B45EA034141EA020141EA000106D10D
:10240000206A0022CFF6FE7202EB40400143606A70
:1024100020B100F47870A26A1043014320684CF2A6
:102420000303CFF6F073C2681A401143C16081689C
:10243000826801F0040102F00802891836D1217D7A
:1024400044F20305E26AC36842EA813123EA0502E5
:102450001143C16094F83810012901691AD14FF66F
:102460001E020125CFF60042CFF6FF751140D4E9D8
:102470000F231943636C05EB02421143A26C19430D
:10248000114309E041F0100001266065304602B0BA
:1024900070BD00BF21F0010101610169626B21F093
:1024A0007041114301612046FFF796F92068E16809
:1024B0000129026B22F00F0102D1A269013A1143F6
:1024C00001630121606D61F301006065304602B077
:1024D00070BD00BF46F20802C5F602021268D207BC
:1024E0003FF459AF6DE70000F0B587B046F2000247
:1024F0000068C5F60202002190420691CDE9041160
:102500000391029152D042F20001C4F202018842CA
:1025100074D144F2E04040F60004C5F60200C5F66E
:10252000020402AD032650F8081C002741F02001E8
:1025300040F8081C50F8081C01F020010191019995
:10254000016841F004010160016801F0040101919A
:102550000199016841F001010160016801F0010188
:1025600001910199016841F002010160006829466A
:1025700000F002000190019822200290204603966C
:10258000049701F0C9FA02A90F20C1C1A4F50060A7
:10259000294601F0C1FAA4F580602946CDE902661A
:1025A000049701F0B9FA07B0F0BD00BF44F2E04073
:1025B000C5F60200026842F080720260026802F012
:1025C00080720192019A026842F00402026000687F
:1025D00000F0040001900198012002900320CDE951
:1025E000030140F6000002A9C5F6020001F094FACA
:1025F0004FF000604FF0006105F0FEF907B0F0BD4C
:10260000F0B190F83510022918D180B540F20F4290
:102610000168C4F20202914214DC6F23C4F2020387
:10262000994225DC3F23C4F2020399423CDC10238B
:10263000C4F2020399425DD0282357E0802141650E
:102640000120704740F26F43C4F2020399421BDC41
:1026500040F23F43C4F2020399422DDC40F21043A2
:10266000C4F20203994245D040F228433EE000BF45
:102670009F23C4F20203994228DC7023C4F20203B0
:10268000994237D0882331E040F29F43C4F20203DD
:10269000994223DC40F27043C4F20203994229D0EC
:1026A00040F2884322E000BF4023C4F20203994273
:1026B00020D058231AE000BF40F24043C4F2020386
:1026C000994217D040F2584310E000BFA023C4F253
:1026D000020399420ED0B82308E000BF40F2B8438D
:1026E000C4F20203994205D040F2A043C4F20203AF
:1026F000994275D191424FF0040280F8352011DCE7
:102700006F20C4F20200814222DC3F20C4F20200AA
:10271000814239DC1020C4F20200814259D02820C5
:1027200054E000BF40F26F40C4F2020081421BDC63
:1027300040F23F40C4F2020081422DDC40F21040E2
:10274000C4F20200814244D040F228403EE000BF83
:102750009F20C4F20200814228DC7020C4F20200F3
:10276000814236D0882031E040F29F40C4F202001E
:10277000814223DC40F27040C4F20200814228D042
:1027800040F2884022E000BF4020C4F202008142B3
:102790001FD058201AE000BF40F24040C4F20200AF
:1027A000814216D040F2584010E000BFA020C4F291
:1027B000020081420DD0B82008E000BF40F2B840CE
:1027C000C4F20200814204D040F2A040C4F20200F0
:1027D0008142086820F001000860002080BD00BF31
:1027E0000A6822F00E020A6045F25742C5F602025C
:1027F00091420A6822F001020A600FDC45F22F4282
:10280000C5F60202914219DC45F20842C5F6020201
:10281000914229D045F21C4222E000BF45F27F429E
:10282000C5F60202914213DC45F25842C5F6020297
:10283000914219D045F26C4212E000BF45F230429D
:10284000C5F6020291420FD045F2444208E000BFB3
:1028500045F29442C5F60202914205D045F280420B
:10286000C5F6020291421AD1D0E9181CD0E916E34C
:102870000A6822F480720A6003F01F01012202FA42
:1028800001F1CEF80410816ECCF80410C16E31B1A4
:102890000A6822F480720A60D0E91C124A600121A1
:1028A00080F83510016D0022002980F8342094D082
:1028B0008847002080BD0000406D70470000000088
:1028C00090F83500704700002DE9F04782B00021F4
:1028D000019140F2080148F2B513C2F20041C1F67D
:1028E0004E33856D40F26F490A680168C4F20209EF
:1028F0002E68A2FB032849452A6815DC9F22C4F2F2
:10290000020291422CDC5722C4F20202914251DCB5
:102910001022C4F2020291427BD02822C4F20202A9
:10292000914276D040226FE045F22F43C5F6020374
:10293000994229DC40F2B743C4F20203994245DCD4
:1029400040F27042C4F20202914262D040F28842E8
:10295000C4F2020291425CD040F2A04254E000BFB7
:1029600040F22742C4F2020291423FDCA022C4F2AC
:10297000020291424DD0B822C4F20202914248D0E4
:1029800040F2104240E000BF45F26B43C5F602033F
:10299000994275DC45F23043C5F60203994200F0D6
:1029A000828045F24443C5F6020399427BD045F24A
:1029B000584373E05822C4F20202914229D0702297
:1029C000C4F20202914224D088221DE040F2B843B2
:1029D000C4F2020399421CD045F20843C5F6020333
:1029E000994260D045F21C4358E000BF40F22842B3
:1029F000C4F2020291420CD040F24042C4F2020200
:102A0000914206D040F25842C4F20202914240F094
:102A10005383C26D082302F01F0240F20F4A934015
:102A2000C4F2020A334200F0DE8051454FF0040444
:102A300012DC6F27C4F20207B9426DDC3F27C4F2F3
:102A40000207B94200F39C801027C4F20207B94282
:102A500000F0BD802827B5E0494569DC40F23F47DA
:102A6000C4F20207B94200F3938040F21047C4F267
:102A70000207B94200F0AB8040F22847A2E000BF55
:102A800045F26C43C5F6020399420CD045F28043EF
:102A9000C5F60203994206D045F29443C5F60203F7
:102AA000994240F009830B68C76D07F01F070426A1
:102AB000BE40164218BF13F0040423D10226BE40C4
:102AC000164218BF13F0020442D1FA40120740F137
:102AD000F38213F0080200F0EF820A6822F00E027F
:102AE0000A60012101FA07F26A60416580F8351039
:102AF000C16C00294FF0000280F8342040F0D882E9
:102B0000DAE200BF1A046E6034D49A0636D40A683A
:102B100022F004020A6031E09F27C4F20207B942A2
:102B200040DC7027C4F20207B94250D0882749E040
:102B300040F29F47C4F20207B9423BDC40F27047C3
:102B4000C4F20207B94242D040F288473AE000BFDF
:102B50001A046E6000F1B4829A0600F1B5820A6828
:102B600022F00A020A60012180F83510002180F865
:102B70003410A9E2D90301D4816C98E2016C96E289
:102B80004027C4F20207B94221D058271AE000BFFB
:102B900040F24047C4F20207B94218D040F2584709
:102BA00010E000BFA027C4F20207B9420FD0B82737
:102BB00008E000BF40F2A047C4F20207B94206D0C5
:102BC00040F2B847C4F20207B94218BF08240F68A0
:102BD000274208D00F6827F004070F60AB60436DF1
:102BE00043F0010343650123934033426FD05145C5
:102BF00010DC6F27C4F20207B9421DDC3F27C4F284
:102C00000207B94234DC1027C4F20207B94256D099
:102C100028274FE049451BDC40F23F47C4F202073A
:102C2000B9422DDC40F21047C4F20207B94246D047
:102C300040F228473EE000BF9F27C4F20207B94296
:102C400028DC7027C4F20207B94238D0882731E067
:102C500040F29F47C4F20207B94223DC40F27047BA
:102C6000C4F20207B9422AD040F2884722E000BFEE
:102C70004027C4F20207B94221D058271AE000BF0A
:102C800040F24047C4F20207B94218D040F2584718
:102C900010E000BFA027C4F20207B9420FD0B82746
:102CA00008E000BF40F2A047C4F20207B94206D0D4
:102CB00040F2B847C4F20207B94240F007824F69B8
:102CC0003F0604D5AB60436D43F002034365042324
:102CD000934033426FD0514510DC6F27C4F2020796
:102CE000B9421DDC3F27C4F20207B94234DC102789
:102CF000C4F20207B94256D028274FE049451BDCF1
:102D000040F23F47C4F20207B9422DDC40F21047BF
:102D1000C4F20207B94246D040F228473EE000BF65
:102D20009F27C4F20207B94228DC7027C4F20207C9
:102D3000B94238D0882731E040F29F47C4F20207F9
:102D4000B94223DC40F27047C4F20207B9422AD0EC
:102D500040F2884722E000BF4027C4F20207B94290
:102D600021D058271AE000BF40F24047C4F20207C2
:102D7000B94218D040F2584710E000BFA027C4F273
:102D80000207B9420FD0B82708E000BF40F2A047C1
:102D9000C4F20207B94206D040F2B847C4F20207B3
:102DA000B94240F09B810F68BF0704D5AB60436D0B
:102DB00043F004034365102303FA02F2324200F0A9
:102DC000828051454FF0080310DC6F27C4F20207E0
:102DD000B9421DDC3F27C4F20207B94234DC102798
:102DE000C4F20207B94256D028274FE049451BDC00
:102DF00040F23F47C4F20207B9422DDC40F21047CF
:102E0000C4F20207B94246D040F228473EE000BF74
:102E10009F27C4F20207B94228DC7027C4F20207D8
:102E2000B94238D0882731E040F29F47C4F2020708
:102E3000B94223DC40F27047C4F20207B9422AD0FB
:102E400040F2884722E000BF4027C4F20207B9429F
:102E500021D058271AE000BF40F24047C4F20207D1
:102E6000B94218D040F2584710E000BFA027C4F282
:102E70000207B9420FD0B82708E000BF40F2A047D0
:102E8000C4F20207B94206D040F2B847C4F20207C2
:102E9000B94218BF04230F681F4214D0AA600A6801
:102EA00052030A6808D4D20508D40A6822F008023E
:102EB0000A60016C21B906E0110351D4016C11B113
:102EC000044688472046C16D01F01F02202101FA07
:102ED00002F3334200F0AF8001681027514511DC46
:102EE0006F26C4F20206B1421EDC3F26C4F202067F
:102EF000B14239DC1026C4F20206B1425BD028266A
:102F000054E000BF49451BDC40F23F46C4F20206D4
:102F1000B14231DC40F21046C4F20206B1424AD05E
:102F200040F2284642E000BF9F26C4F20206B142AA
:102F30002CDC7026C4F20206B1423CD0882635E073
:102F400040F29F46C4F20206B14227DC40F27046CE
:102F5000C4F20206B1422ED040F2884626E000BFFD
:102F6000816C0029ACD1AEE74026C4F20206B14222
:102F700021D058261AE000BF40F24046C4F20206B3
:102F8000B14218D040F2584610E000BFA026C4F26B
:102F90000206B1420FD0B82608E000BF40F2A046BA
:102FA000C4F20206B14206D040F2B846C4F20206AC
:102FB000B14218BF02270E683E423CD0AB6090F889
:102FC0003530042B0B681DD123F016030B604B69C1
:102FD00023F080034B61036C0BB9836C1BB10B684E
:102FE00023F008030B603F219140A960012180F884
:102FF0003510016D00294FF0000280F8342057D1C0
:103000005AE000BF5A030A680CD4D2050ED40A68ED
:1030100022F010020A60012180F83510002180F8AA
:10302000341003E0110301D4416C00E0C16B11B115
:10303000044688472046416D00293DD0416DC907AF
:1030400034D0042180F8351001684FEA98220B68CB
:1030500023F001030B60019B0133019393421AD8C3
:103060000B68DB0717D0019B01330193934212D801
:103070000B68DB070FD0019B0133019393420AD801
:103080000B68DB0707D0019B01330193934202D801
:103090000B68DB07DFD10968C9074FF0030108BFE0
:1030A000012180F83510002180F83410C16C19B16D
:1030B00002B0BDE8F047084702B0BDE8F08700BFA6
:1030C000D90301D4416CF2E7C16BF0E70B6804232C
:1030D000934033427FF4FFAD6DE600BF0B686AE6B4
:1030E0002DE9F041044600F0FBFDFCB140F26F48D1
:1030F00005462068C4F2020840451BDC9F21C4F24B
:103100000201884232DC5721C4F20201884259DCB4
:103110001021C4F20201884200F083802821C4F209
:103120000201884200F07D80402175E00120BDE869
:10313000F08100BF45F22F41C5F60201884229DC2B
:1031400040F2B741C4F20201884247DC40F27041CC
:10315000C4F20201884264D040F28841C4F2020104
:1031600088425ED040F2A04156E000BF40F22741C5
:10317000C4F20201884241DCA021C4F2020188426B
:103180004FD0B821C4F2020188424AD040F2104127
:1031900042E000BF45F26B41C5F60201884200F3F0
:1031A000B38045F23041C5F60201884200F0BF808D
:1031B00045F24441C5F60201884200F0B88045F26C
:1031C0005841AFE05821C4F20201884229D0702151
:1031D000C4F20201884224D088211DE040F2B841A7
:1031E000C4F2020188421CD045F20841C5F6020132
:1031F000884200F09C8045F21C4193E040F2284157
:10320000C4F2020188420CD040F24041C4F20201F3
:10321000884206D040F25841C4F20201884240F090
:103220001B81022184F83510002184F834100168D4
:1032300021F00101016000BF20680168C9070DD0BD
:1032400000F04EFD401B0628F6D3202060650320C9
:1032500084F835000120BDE8F08100BF48F23F024C
:1032600004F108060168CFF61062114065694CCE82
:103270001143A2691943E3693143266A0D43616A28
:103280002B43042943EA060343EA020303D1D4E9AA
:103290000B652E43334341F20006C5F600463668FF
:1032A000B6F1005F0FD36568A5F129061F2E00F265
:1032B00035820127B7403F26CCF2C036374200F0B6
:1032C0002D8243F4801303600429436923F007032C
:1032D00041EA030140F0DC80D4E90A53002B41EAC3
:1032E000050100F0D580B2F5005F00F0B780002A3C
:1032F00040F0C080022D00F0C080012D00F0B480AD
:10330000002D00F0BA80C3E045F26C41C5F6020121
:1033100088420CD045F28041C5F60201884206D0B1
:1033200045F29441C5F60201884240F0958004F1CF
:10333000080E022184F83510002184F83410016849
:10334000A3699EE80450A2F18005E769B5FA85F506
:1033500066696D09402A4FEA853543EA07026FF333
:10336000101142EA060208BF102541EADC0142EAD8
:103370000E02236A294341EAD20141EA131140F8BF
:103380000819C0B2CD2148433C2101EA9020E065F4
:103390002046FEF7F5FAE16D012201F01F0102FA65
:1033A00001F141602068404500F381809F21C4F213
:1033B0000201884214DC5721C4F20201884227DC52
:1033C0001021C4F20201884200F0C7802821C4F213
:1033D0000201884200F0C1804021C4F20201B9E03C
:1033E00040F22741C4F20201884221DCA021C4F24C
:1033F0000201884200F0B180B821C4F20201884283
:1034000000F0AB8040F21041C4F20201A2E000BF24
:103410005821C4F20201884200F09F807021C4F25A
:103420000201884200F099808821C4F2020191E0F3
:1034300040F22841C4F20201884200F08E8040F23E
:103440004041C4F20201884200F0878040F25841B6
:10345000C4F202017EE000BF4020F7E6032D17D83A
:10346000DFE805F00E0B0E02A3F1C072B2FA82F291
:10347000520904E0032D03D30AD1C3F300623AB129
:1034800040206065012084F83500BDE8F08100BF70
:1034900041612046FEF774FAE16D3F2201F01F0101
:1034A00002FA01F18160206840457FF77FAF45F265
:1034B0002F41C5F60201884216DC40F2B741C4F242
:1034C0000201884226DC40F27041C4F202018842C7
:1034D00043D040F28841C4F2020188423DD040F21C
:1034E000A041C4F2020135E045F26B41C5F602018C
:1034F00088421FDC45F23041C5F6020188422CD0DB
:1035000045F24441C5F60201884226D045F25841B1
:103510001EE000BF40F2B841C4F2020188421CD054
:1035200045F20841C5F60201884216D045F21C4119
:103530000EE000BF45F26C41C5F6020188420CD096
:1035400045F29441C5F60201884206D045F2804119
:10355000C5F60201884240F0D98045F2574C45F645
:10356000FC0EC5F6020CC5F6020E60450EDC45F2F7
:103570002F41C5F60201884218DC45F20841C5F624
:103580000201884228D045F21C4121E045F27F41EA
:10359000C5F60201884213DC45F25841C5F6020126
:1035A000884219D045F26C4112E000BF45F230412B
:1035B000C5F6020188420FD045F2444108E000BF41
:1035C00045F29441C5F60201884205D045F280419A
:1035D000C5F60201884247D100F0FC014CF6CD420D
:1035E0000839CCF6CC42A1FB0212AEF1FC05AEF1DB
:1035F0007C061309A26803F01F01802A4FF0010224
:1036000005EB8305256602FA01F26666A26605D11E
:1036100000206060286072601EE000BF6368D9B25D
:103620005F1E072F2960726016D84E1E082E19D211
:1036300060450EF1440237DC45F22F41C5F6020128
:10364000884241DC45F20841C5F60201884251D06A
:1036500045F21C414AE000BF00206067C4E91B003E
:1036600054E000BFE06E4CE000F0F8014AF6AB22F7
:103670001039CAF6AA22A1FB021240F20F43C4F28B
:10368000020308251109984203F1AA060B4688BFD8
:1036900005EB121340F60005B042C4F2020505F135
:1036A000800628BF0B46A5E745F27F41C5F602011B
:1036B000884213DC45F25841C5F60201884219D010
:1036C00045F26C4112E000BF45F23041C5F60201FF
:1036D00088420FD045F2444108E000BF45F28041E6
:1036E000C5F60201884205D045F29441C5F60201B3
:1036F00088421BD10EEB83000121E066B1402267B6
:10370000616700210160D4E91C014160002060650F
:10371000012184F83510BDE8F08100BFA5F14F0705
:10372000042F38BF43F48013CDE500BF40F60000FE
:10373000C4F2020000F1FC0E00F5A072DAE700000E
:1037400030B110B590F83440012C03D1022010BDE7
:1037500001207047012480F8344090F83540012C56
:103760002CD1022480F8354000244465D0F800C0F4
:10377000DCF8004024F00104CCF800400446FEF7D9
:1037800093F940F20F4C2068C4F2020C40F26F41F2
:103790006045C4F2020119DC6F23C4F202039842AF
:1037A00026DC3F23C4F2020398423DDC1023C4F21E
:1037B000020398425FD0282358E000BF4FF4006115
:1037C0004165002180F83410012010BD88421BDCC7
:1037D00040F23F43C4F2020398422DDC40F2104312
:1037E000C4F20203984246D040F228433EE000BFB4
:1037F0009F23C4F20203984228DC7023C4F2020320
:10380000984238D0882331E040F29F43C4F202034B
:10381000984223DC40F27043C4F2020398422AD05B
:1038200040F2884322E000BF4023C4F202039842E2
:1038300021D058231AE000BF40F24043C4F20203F3
:10384000984218D040F2584310E000BFA023C4F2C1
:10385000020398420FD0B82308E000BF40F2B843FB
:10386000C4F20203984206D040F2A043C4F202031D
:10387000984240F02F8103680B2262F344030360F7
:10388000226C1AB1082302681A430260884219DCCC
:103890009F22C4F20202904232DC5722C4F202029A
:1038A000904259DC1022C4F20202904200F096804D
:1038B0002822C4F20202904200F090804022C4F21A
:1038C000020289E045F22F42C5F6020290422DDC49
:1038D00040F2B742C4F2020290424BDC40F2704226
:1038E000C4F20202904279D040F28842C4F202024D
:1038F000904273D040F2A042C4F202026CE000BFDA
:1039000040F22742C4F20202904243DCA022C4F2F9
:103910000202904262D0B822C4F2020290425DD00C
:1039200040F21042C4F2020256E000BF45F26B4280
:10393000C5F6020290423FDC45F23042C5F6020273
:1039400090424BD045F24442C5F60202904245D027
:1039500045F258423EE000BF5822C4F202029042B3
:103960003CD07022C4F20202904237D08822C4F2C6
:10397000020231E040F2B842C4F2020290422DD07D
:1039800045F20842C5F60202904227D045F21C4299
:1039900020E000BF40F22842C4F2020290421DD053
:1039A00040F24042C4F20202904217D040F2584224
:1039B000C4F2020210E000BF45F26C42C5F60202FA
:1039C00090420BD045F29442C5F60202904205D0D7
:1039D00045F28042C5F60202904274D1236E1A6805
:1039E000D20303D51A6842F480721A60E36E1BB1E9
:1039F0001A6842F480721A60604511DC6F21C4F2CB
:103A0000020188421EDC3F21C4F20201884235DCFB
:103A10001021C4F20201884255D0282150E000BF95
:103A200088421BDC40F23F41C4F2020188422DDC97
:103A300040F21041C4F20201884244D040F22841D1
:103A40003EE000BF9F21C4F20201884228DC7021C1
:103A5000C4F20201884236D0882131E040F29F4111
:103A6000C4F20201884223DC40F27041C4F2020138
:103A7000884228D040F2884122E000BF4021C4F2B1
:103A8000020188421FD058211AE000BF40F2404195
:103A9000C4F20201884216D040F2584110E000BF43
:103AA000A021C4F2020188420DD0B82108E000BF75
:103AB00040F2B841C4F20201884204D040F2A04171
:103AC000C4F202018842016841F001010160002056
:103AD00010BD00BF0268052363F343020260226C3D
:103AE000002A3FF4D3AE0423CDE60000000000001E
:103AF000B0B5044600F0F4F840F200010546C2F209
:103B00000041621C097818BF0C4400BF00F0E8F8BF
:103B1000401BA042FAD3B0BD2DE9F04F83B00F682F
:103B2000002F00F0C98000F1264642F2004506F160
:103B3000FF76C5F602050A22A8424FEAB62540F2F2
:103B4000040C08BF092200F120030093092DC5F6DB
:103B5000000C38BF4FEAB622002400264FF00008C0
:103B600001920AE008F101080F6837FA08F206F13D
:103B7000020604F1040400F09F80012202FA08FE0C
:103B800017EA0E09EED0D1F804B003220BF00307B8
:103B9000B2407D1E6FEA020A012D11D88268CD68FD
:103BA00002EA0A02B5402A438260CBF3001542685C
:103BB00022EA0E0205FA08F52A43426004E000BF3B
:103BC000032F01D103271FE0C2688D6802EA0A02B1
:103BD000B540022F42EA0502C26015D16FF0030220
:103BE00004F01C0502EA580B009A0F2352F80BE070
:103BF000AB400F692EEA0303AF403B4342F80B3062
:103C0000D1F804B00BF00307026807FA06F302EAE2
:103C10000A021BF4403F42EA03020260A2D044F2CF
:103C2000F44340F2084EC5F60203C5F6000E0F2518
:103C30001A6842F002021A601A6802F00202029246
:103C400028F00302029B04F00C0352F80E709D4012
:103C5000AF43019D05FA03F33B4342F80E304FF0AA
:103C6000B04EDEF800204B6842EA0907DD0258BF7B
:103C700022EA09079D02CEF80070DCF8002042EA33
:103C8000090758BF22EA09079D03CCF80070DCF849
:103C9000802042EA090758BF22EA0907DB03CCF873
:103CA0008070DCF87C2042EA090758BF22EA090745
:103CB000CCF87C7056E700BF03B0BDE8F08F000081
:103CC000002A08BF0904816170470000000000005D
:103CD00041F20000C5F600400068000C704700008B
:103CE0004EF28020C2F200400068704700000000E1
:103CF00090F84120202A03D190F84020012A01D1D8
:103D000002207047242280F841200268136823F0C3
:103D100001031360136823F480531360136819437D
:103D20001160116841F001011160202180F84110FB
:103D3000002180F8401000207047000000000000C3
:103D400090F84120202A03D190F84020012A01D187
:103D500002207047242280F841200268136823F073
:103D600001031360136823F4706343EA01211160B7
:103D7000116841F001011160202180F841100021FB
:103D800080F84010002070477047000000000000DD
:103D900070470000000000007047000000000000B5
:103DA00010B310B590F8411031B9002180F84010DF
:103DB000044600F035F92046242180F8411090E8AF
:103DC0001210C3680A68012B22F001020A6024F075
:103DD00070620A618A6822F400428A6006D14CF45B
:103DE00000428A600CE000BF01207047022B4CF4B7
:103DF00004428A6004D14A6842F4006203E000BFD2
:103E00004A6822F400624A6000F1100C4A6842F0ED
:103E1000007242F400424A60CA6822F40042CA605A
:103E20009CE81C101A4342EA0422CA60026A42EA71
:103E30000C020A600A6842F001020A600021416433
:103E4000202280F84120016380F84210002010BD3C
:103E5000704700000000000044F60011C2F200416B
:103E6000884218BF704780B540F23C3040F29C3128
:103E7000C2F20040C2F200415E22FCF7D9FB02A070
:103E8000BDE8804009F030BD72656376210D0A00FF
:103E90007047000000000000F0B581B090F841606C
:103EA000202E09D1D0F800E0DEF81860360403D4E3
:103EB00090F84060012E03D1022001B0F0BD00BF98
:103EC000012680F84060222680F84160102680F8A4
:103ED000426000264664426243850023CFF6FF73AA
:103EE000C36248F65103C0F600034363438DB3F544
:103EF000807F2DD3FF2303854FF08074D0F83CC022
:103F0000BCF1000F2ED00D46064647F6D96047F6A5
:103F10008961C0F60000C0F600010027CCE90F0758
:103F2000CCE913170EF124016046FFF709FC48B3F2
:103F3000202086F84100002086F84200716C41F094
:103F40001001716486F84000012001B0F0BD00BF8F
:103F5000438D0385C3B34FF00074D0F83CC0BCF16F
:103F6000000FD0D1202180F84110002180F84210AC
:103F7000426C42F08002426480F84010012001B09F
:103F8000F0BD00BF308D49F600076FF39F25326802
:103F9000C1B2CFF60047536845EA01413B40214397
:103FA000194341F410515160718D081A7085002039
:103FB00086F84000116841F090011160116841F4E9
:103FC0000041116001B0F0BD48F6412249F60003FE
:103FD000C0F600024263DEF80420CFF600436FF320
:103FE0009F211A40114441F0007141F41051CEF864
:103FF0000410002180F84010DEF80010002041F08D
:10400000F401CEF8001001B0F0BD00000000000087
:104010007047000000000000704700000000000032
:1040200070B5B8B0044602A80830B8210025339511
:10403000CDE93655CDE93455FCF72CFB45F200416E
:104040002068C4F20001884202D038B070BD00BFC1
:104050000820029002A8039502F01EFA08B1FDF7AD
:10406000ABFE44F2E04533A9C5F6020500262868F8
:1040700040F002002860286800F0020001900198DA
:10408000C0203390122034900420379040F200403A
:10409000C5F60200CDE93566FFF73EFDA86840F49D
:1040A0000010A860A86844F2B855C2F2004500F4B8
:1040B00000100190A020C4F2020001992860212084
:1040C000C5E901064FF48060EE60C5E904062846A4
:1040D000C5E90666C5E90866FFF702F808B1FDF70D
:1040E0006BFEE563AC6338B070BD000000000000FB
:1040F0007047000000000000704700000000000052
:104100004FF0010C19B1002A18BF002B02D16046F4
:10411000704700BF10B590F84D40012C03D190F8C6
:104120004C40012C06D14FF0020CBDE81040604617
:10413000704700BF012480F84C40C16249F2411E23
:10414000426300220386C0F6000E4386038743873E
:104150000265052280F84D200268D0E911C39468F9
:1041600024F44044946049F211142032C0F6000453
:10417000C3E90F4E49F24914C0F60004DC64438ED3
:1041800004466046FFF7DCFA78B921682346886860
:10419000000403D4886840F4004088605A6B986C2F
:1041A0005B8F3031FFF7CCFA80B1216D204641F0B2
:1041B000080121654FF0010C84F84DC0002180F802
:1041C0004C10BDE810406046704700BF2168204693
:1041D0008A68520403D48A6842F480428A600A687A
:1041E000D20703D10A6842F001020A600A684FF060
:1041F000000C42F400720A60E0E7000000000000DA
:1042000040F22431C2F20041CA6882421ED00A69DB
:10421000824235D04A69824218BF704740F2680333
:104220004CF2C8704AF6C872C2F20043C2F20040B3
:10423000C2F2004200F5406002F54062C3E90402A8
:1042400001F1080001210160704700BF40F26802DF
:1042500046F2C87044F6C871C2F20042C2F2004091
:10426000C2F2004100F5406001F54061C2E9000181
:1042700040F22430C2F2004001210160704700BFCB
:1042800040F2680349F2C87047F6C872C2F20043B0
:10429000C2F20040C2F2004200F5406002F5406206
:1042A000C3E90202081D01210160704700000000FF
:1042B00040F22431C2F20041CA6882421AD00A692F
:1042C00082422DD04A69824218BF704740F268008E
:1042D0004CF2C872C2F200404AF6C873C2F2004201
:1042E000C2F20043C0E9042301F10800012101608A
:1042F000704700BF40F2680046F2C871C2F2004049
:1043000044F6C872C2F20041C2F20042C0E9001293
:1043100040F22430C2F2004001210160704700BF2A
:1043200040F2680049F2C872C2F2004047F6C87312
:10433000C2F20042C2F20043C0E90223081D01217B
:10434000016070470000000070470000000000009E
:1043500030B370B5044690F84D0028B9002084F8B9
:104360004C00204600F0ACF8022084F84D00206894
:104370000168C90703D0016821F001010160002133
:10438000016561680A2953D801228A4012F48A6FB4
:104390004ED06069022805D10023022231E000BF1F
:1043A00001207047D4E902053038002120F0800058
:1043B000B0FA80F046094FF4805001F06DFE21699B
:1043C000B1F1007F04D14FF48071F14007E000BFEC
:1043D000002D4FF0200118BF0125F140A940B0FB8E
:1043E000F1F0616900EB80004000B0FBF1F04CF6A9
:1043F000CD410530CCF6CC41A0FB01010A09C1F347
:10440000C003501EB0FA80F04009034252D1B2F509
:10441000807F4FD2D4E900011B06002A066D08BF39
:104420004FF080736FF3184643EA0242324302654D
:1044300049F24003026DCFF6FF530A2902EA030254
:10444000D4E9023642EA0302A36942EA0602266A76
:1044500042EA0302636A42EA0602266942EA03026A
:1044600042EA060242EA010242F00102026540F617
:10447000F8728261026822F480320260C268E369E5
:1044800022F4000242EA0302C2600CD8012202FABE
:1044900001F111F48A6F1FBFC16821F00041A26AC7
:1044A000114318BFC16000202065012184F84D1020
:1044B00070BD00BF206D40F010002065012070BD70
:1044C0002DE9F04F87B043F6000104460068C4F2BE
:1044D000000100278842CDE90577049703970297EA
:1044E00000F0248143F60041C4F20001884200F04C
:1044F0008D8043F20001C4F20101884240F09E81A8
:1045000044F2E04040F60005C5F60200C5F602059B
:1045100002AE40F2100A01694FF0020841F48051E6
:1045200001610169C4F2020A01F48051019101990B
:10453000016841F00101016001684FF0050901F0D7
:10454000010101910199016841F0040101600068D5
:10455000314600F004000190019848F2E00002901A
:10456000A5F50060CDE903870597CDF81890FFF712
:10457000D3FA10203146CDE902082846CDF818902C
:10458000CDE90477FFF7C8FA44F2A8652620C2F205
:1045900000454FF480694FF4804B4FF4807668609B
:1045A0004020A8602846C5F800A04FF4805AEF606C
:1045B0004FF44038C5F81090C5F814A0C5E906B608
:1045C000C5E90887FEF78CFD08B1FDF7F5FB6564CA
:1045D0001020AC6344F23065C2F20045C4F2020020
:1045E000183028602520C5E9010705F10C00EE61AF
:1045F000C5E9088780E8800E2846FEF771FD00288F
:104600004FF0480640F0168116E100BF44F2E0404A
:1046100040F60005C5F60200C5F6020502AE40F2FE
:10462000100881684FF0020941F4004181608168FF
:10463000C4F2020801F4004101910199016841F0BE
:104640000101016001684FF0060A01F001010191CA
:104650000199016841F002010160016801F0020165
:1046600001910199016841F004010160006831463F
:1046700000F004000190019810200290A5F5006060
:10468000CDE903970597CDF818A0FFF745FA042068
:104690003146CDE9020907200690A5F58060CDE9F5
:1046A0000477FFF739FA4FF448603146CDE9020943
:1046B0002846CDF818A0CDE90477FFF72DFA44F687
:1046C000100508F16000C2F200454FF480694FF414
:1046D000805A4FF4804B28603D20C5E901072846E9
:1046E000EF60C5F810904FF48076C5F814A0C5F8B7
:1046F00018B0C5E907676F62FEF7F2FC08B1FDF775
:104700005BFBA56408F17800AC6344F68805C2F24F
:10471000004505F1080128603E206860402081E8DE
:10472000810EC5E907676F627EE000BF44F2E0409A
:1047300040F60005C5F60200C5F6020502AE40F2DD
:10474000100A81684FF0020841F48041816081685D
:10475000C4F2020A01F4804101910199016841F01B
:104760000401016001684FF0050901F004010191A5
:104770000199016841F0020101600068314600F0D2
:10478000020001900198442002902846CDE9038759
:104790000597CDF81890FFF7BFF94FF41440314654
:1047A000CDE90208A5F58060CDF81890CDE9047731
:1047B000FFF7B2F944F220750AF14800C2F2004551
:1047C0004FF480694FF4805A4FF4804B28602720C3
:1047D000C5E901072846EF60C5F810904FF48076D0
:1047E000C5F814A04FF44038C5E906B6C5E90887F6
:1047F000FEF776FC08B1FDF7DFFAA5641020AC6384
:1048000044F29875C2F20045C4F2020005F10C01B1
:1048100030302860282068604020A860002081E8AF
:10482000010EEE61C5E908802846FEF759FC4FF0FD
:10483000440608B1FDF7C0FAA551AC6307B0BDE866
:10484000F08F00000000000040F200004EF28021D6
:10485000C2F20040C2F2004100780A6810440860C9
:10486000704700000000000080B5032000F0FCF855
:1048700002F04EFD44F218414EF26853C5F60201B3
:10488000C0F600030A68C2F303229A5C096801F0CB
:104890000F0102F01F02595CD04040F20C02C2F23C
:1048A000004201F01F0120FA01F1116040F20801FD
:1048B000C2F2004108600F2000F00AF800281CBF77
:1048C000012080BD00F07CF8002080BD00000000C9
:1048D000B0B540F20005C2F200452978F1B10446B6
:1048E00040F20800C2F200404FF47A72B2FBF1F1DC
:1048F0000068B0FBF1F003F08BF80F2C01464FF08D
:1049000001000AD8002918BFB0BD4FF0FF300022C7
:10491000214600F079F800206C60B0BD0120B0BDE8
:1049200010B54EF6A05E4378CEF2000E90F800C0AF
:104930004EF8083CDEF8003023F00103CEF80030DA
:1049400043684EF8043C037BC27A817A447B1206AA
:1049500042EA0372837B42EAC141C27B41EA84415D
:10496000447A41EA4341007A41EA024141EA0421A2
:1049700041EA400040EA0C00CEF8000010BD000003
:104980004EF62450CEF20000BFF35F8F016821F491
:1049900080310160002101677047000000000000C5
:1049A0004EF6245140F00100CEF20001086708687D
:1049B00040F480300860BFF34F8FBFF36F8F7047B4
:1049C00081B044F2F440C5F60200016841F00201F2
:1049D0000160006800F002000090009801B070478C
:1049E000002848BF704700F01F01012202FA01F1C0
:1049F0004EF20012C0F34A10CEF2000242F820102C
:104A0000704700000000000070B54EF60C5C4FF0DF
:104A1000FF36CEF2000C00F1604505F56445DCF888
:104A20000030C3F3022E8EF00703042B28BF0423AB
:104A3000BEF1030406FA03F321EA030100F00F03B9
:104A400038BF0024043B0028634406FA04F048BF42
:104A500003F10C05A14022EA000008430001287080
:104A600070BD0000000000004EF60C514FF6FF0331
:104A7000CEF200010A681A4060F30A2242F0806018
:104A800040F0FD700860704701680122C0F8D8242A
:104A9000002280F8CC24886940F000608861486D6D
:104AA00040F08052002042F003024A657047000047
:104AB000704700000000000002680020516270474B
:104AC0002DE9F043D0F80080D8F8243091B1D8F81F
:104AD0002870B1F1010C03EB17414FD05FFA8CF352
:104AE0000CF0030E042B08F582730BD20027002470
:104AF0002BE000BF002043EA0241C8F82810BDE8BF
:104B0000F08300BF0CF0FC0908F1F406002400BF9C
:104B100056F8107F44F00100C0B244F00305EDB236
:104B200001EB174144F0020753F82000FFB20434B0
:104B300001EB104053F8271053F82550E7B200EB73
:104B400011404F4500EB1541E2D1BEF1000F15D0E9
:104B500053F82700BEF1010F01EB10410ED0601C8D
:104B6000BEF1020FC0B253F8200001EB104105D096
:104B7000A01CC0B253F8200001EB104108EB8C00E0
:104B800041EA0241C0F804110020BDE8F0830000B2
:104B9000D0F8E00406F0E0B901EBC10200EB8202BC
:104BA000D0F8E004126A06F043B9000000000000EB
:104BB00001EBC10200EB8202D0F8E004D2F86022DF
:104BC00006F092B900000000D0F8E00406F0C8B981
:104BD00010B501F00F0E0A464FFA82FCD2090EEB17
:104BE000CE01BCF1000F00EB810303F5157148BF46
:104BF00003F1140190F894344A70012B81F800E01D
:104C000002D1022010BD00BF012280F89424026866
:104C10000446104607F008F9002084F8940410BDFB
:104C2000B0B5037901F00F029A4201D90120B0BD5D
:104C30004CB202EBC2038C46002C00EB830303F55D
:104C400015714FEADC1448BF03F1140190F8943455
:104C50004C700024012B8C700A7001D10220B0BD71
:104C6000012280F8942402680546104607F0CCFB28
:104C7000204685F89444B0BD10B54FFA81FCBCF1D4
:104C8000000F01F00F0C0CEBCC0123D400EB810ED4
:104C900000218EF855120EF515718EF854C2CEF81B
:104CA0005C228EF85832022B01D100224A7190F812
:104CB0009424012A02D1022010BD00BF012280F8F5
:104CC000942402680446104606F042FF002084F84F
:104CD000940410BD00EB81014FF0010E01F814CFD8
:104CE00081F801E08A600B71A1F81AC0022BDCD0B8
:104CF000DDE700000000000080B501F00F0C0CEBB8
:104D0000CC0100EB810E0021CEE998238379CEF807
:104D100068128EF855120EF51571012B8EF854C2DB
:104D200008BFCA6100681A4607F0BAFB002080BDC0
:104D3000B0B5027901F00F0494424FF001022DD872
:104D40004FFA81FC01EBC10304EBC405BCF1000F79
:104D500000EB830303F5157300EB850548BF05F1F0
:104D6000140390F89454C9095970012D9A701C705D
:104D700002D10220B0BD00BF012180F89414054685
:104D80000068194607F06CFB2CB9A979286805F270
:104D90009C4207F009FB002285F894241046B0BD20
:104DA00080B501F00F0C90F806E00CEBCC01BEF1E1
:104DB000010F00EB810101F814CF4FF0000C0B61E3
:104DC0004FF00103CA60C1F814C04B7008BFCA613C
:104DD0000068724607F064FB002080BD0000000000
:104DE0002DE9F04F87B005688246284607F068FD38
:104DF00010B107B0BDE8F08FDAF8000007F090FDC1
:104E00000028F6D0D5F80808C0F30D20CAF8D4045D
:104E1000DAF8000007F084FD8007DAF8000003D517
:104E2000416901F00201416105F50061059107F05A
:104E300077FDC006DAF80000069535D5816921F0C6
:104E4000100181612C6A04F00F0000EBC001C4F373
:104E500043400AEB8101062801F5157512D002289E
:104E60001BD147F6F07014EA000616D03409E96841
:104E70000698224607F058FDE86800EB1610E86037
:104E800008E000BF0AF29C410822069807F04CFD9A
:104E9000C4F30A14686920446861DAF80000816983
:104EA00041F010018161069D07F03AFD000340F1D9
:104EB000F980DAF8000007F00FFD002800F0F2801A
:104EC00006464FF4306800244FF0000B0AF29C4075
:104ED000049008E00BF1010B760808F1200804F1BA
:104EE000240400F0DF80F007F4D05FFA8BF9DAF8E1
:104EF0000000494607F00CFD0746C00761D005EBEE
:104F0000080001218160DAF8000008EB0001036C61
:104F10008A689AF80650012D26D1150734D49506D3
:104F200000F1B88043F20B05C4F65475AB42069D00
:104F300002D312F4004231D10AEB0402D2F87432E7
:104F400009696FF3DF41A3EB0101C2F86812A4BB4A
:104F5000D2F86432002B00F0A380D2F8600208443B
:104F6000C2F8600229E000BF43F20B05C4F6547595
:104F7000FF35AB4218D11004069D0FD490061CD506
:104F80002020886019E000BF43F20B00069DC4F6A4
:104F90005470834215D312F4004012D04FF40040F5
:104FA000886038070FD43DE0069D34B9DAF8641202
:104FB00019B90021049A07F0F7F950464946FFF75E
:104FC000F7FD38072ED505EB08000821816043F274
:104FD0000B01DAF80000C4F65471056C40448D42B0
:104FE00081680BD311F4004108D04FF40041816077
:104FF000504600F075FD069D0AE000BF504600F0E7
:105000006FFD43F20B00C4F654708542069D09D330
:105010009AF80600012805D1DAF800000121049A67
:1050200007F0C2F9F80607D4B8070BD4B80624D4A1
:10503000B8047FF54FAF27E005EB08001021816031
:10504000B807F3D56869000604D50599486840F4A7
:10505000806048600AEB040090F85712012906D1DD
:10506000002180F857125046494600F07DFB05EBC1
:10507000080002218160B806DAD505EB080020217E
:105080008160B8047FF526AF05EB08004FF40051AE
:1050900081601FE720208860069D380793D4C1E710
:1050A000012187E7DAF8000007F03AFC400340F1FD
:1050B000E180DAF8000007F007FC002800F0DA8051
:1050C0000646069800F5106900250AF114000490C0
:1050D0000AF29C400290CDF80C9004E0760805F1AD
:1050E000010500F0C780F007F8D0EFB2DAF8000051
:1050F000394607F0F9FB0446C0070BD1200735D429
:10510000E00639D460063DD4A00741D42006E5D599
:1051100058E000BF059B05F00F004FF0010C09EBB4
:1051200045120CFA00F0596B21EA00005863C2F8EE
:1051300008C09AF80600012812D105EBC5000499B1
:1051400001EB8000D0E902121144C16045B9006949
:1051500030B9DAF800000121029A07F025F900BF02
:1051600050463946FFF718FD2007C9D509EB451011
:1051700008218160E006C5D509EB4510102181604A
:105180006006C1D509EB451040218160A007BDD55F
:105190000698294607F024FB05EBC500049901EBAE
:1051A000800010F8031F012905D10021017050462D
:1051B000394600F0D5FA09EB45100221816020063E
:1051C0007FF58CAF05EBC500049901EB8008D8E9A9
:1051D00004108142FFF482AFDAF800400A1AD8F8CE
:1051E00008309A4238BF134604EB451203F1030C12
:1051F000D2F818399BB2B3EB9C0F2BD302F5106990
:10520000D8F81010814223D9081A9AF80620D8E954
:1052100002B1584538BF8346009220461FFA8BF3EF
:105220003A4607F02DFED8F80C00D8F81410584470
:10523000C8F80C0001EB0B00C8F814000BF10301D7
:10524000D9F8182092B2B2EB910FD9D2D8F8101039
:10525000DDF80C9081423FF641AF05F00F000121CF
:1052600001FA00F0D4F8341821EA0000C4F8340838
:1052700034E700BFDAF8000007F052FB00280DD435
:10528000DAF8000007F04CFB000526D4DAF800003D
:1052900007F046FB000131D43CE000BF05994868A7
:1052A00020F0010048609AF8CC04012808D10020C1
:1052B0008AF8CC0400215046FFF7FAFB03E000BF58
:1052C000504600F0F1FBDAF80000416901F00041BE
:1052D000416107F025FB0005D8D505988068C00717
:1052E00002D0504600F024FCDAF80000416901F4D5
:1052F0000061416107F014FB00010BD5DAF80000F2
:10530000416901F0006141619AF8CC1491B15046B5
:1053100000F00EFCDAF8000007F002FBC0041AD41B
:10532000DAF8000007F0FCFA8004DAF8000000F177
:105330000D8126E101218AF8CC14406DC0F3830071
:10534000CAF8D0045046FFF7B3FBDAF8000007F0C4
:10535000E7FAC004E4D50599486820F001004860E8
:10536000DAF80000102107F03BFA9AF80400010671
:1053700000F0BB80C1B200F00300042902D200217A
:1053800068E000BF6FF06002002302EA41124FF6AE
:105390007F370021069C00BFE61880339A4201F156
:1053A0000401C6F80879D6F8005925F40015C6F8A6
:1053B0000059C6F8087BD6F8005B25F40015C6F83E
:1053C000005BD6F8005B45F00065C6F8005BC6F8E8
:1053D0002879D6F8205925F40015C6F82059C6F8C2
:1053E000287BD6F8205B25F40015C6F8205BD6F89C
:1053F000205B45F00065C6F8205BC6F84879D6F812
:10540000405925F40015C6F84059C6F8487BD6F82F
:10541000405B25F40015C6F8405BD6F8405B45F0CC
:105420000065C6F8405BC6F86879D6F8605925F47F
:105430000015C6F86059C6F8687BD6F8605B25F49D
:105440000015C6F8605BD6F8605B45F00065C6F8ED
:10545000605BA1D1002848D0069A4D0102F5106387
:1054600002F5306203EB41164FF67F3702EB411431
:105470000128B7605E5926F400165E51A7605659A0
:1054800026F400165651565946F0006656512CD057
:105490004E1C02284FEA461403EB461502EB461653
:1054A000AF601D5925F400151D51B760175927F439
:1054B00000171751175947F00060105115D0881C7C
:1054C0004FF67F36470103EB401102EB40108E6030
:1054D000D95921F40011D9518660D05920F4001017
:1054E000D051D05940F00060D051059F8421442212
:1054F000F86940F00110F8619AF80F0000284FF0A9
:105500000B0008BF142104BF42F22B0010227B586D
:1055100018437850B85840F00B00B85038680AF279
:105520009C4220F4FE6038609AF80610DAF8000019
:1055300006F03AFFDAF80000416901F48051416158
:1055400007F0EEF98004DAF800001AD506F044FB03
:10555000DAF8000007F0A4F98AF80700DAF800404A
:1055600001F04EFE9AF807200146204607F0FCFBAA
:10557000504600F081FADAF80000416901F4005168
:10558000416107F0CDF9000706D4DAF8000007F012
:10559000C7F900060DD437E0504600F089FADAF872
:1055A0000000416901F00801416107F0B9F9000606
:1055B0002AD50699886920F0800088619AF804004D
:1055C000022821D30AF515740AF11405012640F2C8
:1055D0007B2703E001362437864215D21AF80710DC
:1055E0000129F7D106F00F00320600EBC00005EBF1
:1055F000800158BF04EB8001DAF8000007F060F882
:105600009AF80400E6E700BFDAF8000007F088F92E
:10561000C0024FD4DAF8000007F082F98002069D3C
:1056200040F180809AF8041002292AD305F53260EF
:1056300001390AF51F72012306E000BF013900F1AC
:10564000200002F124021CD007681678012EF5D143
:10565000B7F1FF3FF2DCDAF8D46407F4803706F0E4
:105660000106B742EAD102F8013CAF6947F0800772
:10567000AF616F693F06E1D40599486840F4007056
:105680004860DAF80000416901F40011416107F057
:1056900047F940004CD55046FFF77AFADAF8000097
:1056A000416901F08041416107F03AF940077FF517
:1056B000A0AB44E09AF80400022827D306990AF127
:1056C000140401F512650AF13B064FF001080127A9
:1056D00006E000BF01372035874206F1240615D2C7
:1056E00029687278012AF5D1B1F1FF3FF2DC07F0A9
:1056F0000F0086F8008000EBC00004EB8001DAF8B0
:10570000000006F0DDFF9AF80400E3E7DAF8000095
:10571000416901F48011416107F002F98002069DA0
:105720003FF580AFDAF8000007F0FAF84000B2D495
:10573000DAF8000007F0F4F840077FF55AABDAF822
:1057400000004468610704D55046FFF73DFADAF8D7
:10575000000041682143416007B0BDE8F08F0000C0
:10576000D0F8E00405F05CBCD0F8E00405F070BCB3
:10577000002800F02781F0B581B0044690F8950428
:1057800028B9002084F89404204600F031F9032061
:1057900084F89504206806F0FFFDD4E90001267C1A
:1057A000D4E90223009606F027FA002840F004818D
:1057B0002068002107F010F9002840F0FD8094F8DF
:1057C00004E0BEF1000F00F0EE80BEF1040F0EF019
:1057D000030C4FF0000241D30EF0FC03A4F1900043
:1057E00003250121EE1E80F8A460A0F8BE60AE1E65
:1057F00080F8C8606F1CA0F8E2606E1E80F8EC6054
:105800009F42A0F8066105F1040680F8A51080F813
:10581000A820C0E92B22C0F8B42080F8C91080F875
:10582000CC20C0E93422C0F8D82080F8ED1080F8F0
:10583000F020C0E93D22C0F8FC2080F8111180F86A
:105840001051A0F82A51354680F81421C0E94622AB
:10585000C0F8202100F19000C4D1F21EBCF1000F6D
:1058600032D002EBC20104F114000123BCF1010F9C
:1058700000EB810500F821204FF000016B706A8376
:105880002971C5E9021129611ED0551CBCF1020F16
:1058900005EBC50600EB860700F826507B707D837C
:1058A0003971C7E9021139610ED0911C012501EB54
:1058B000C10200EB820300F8221000205D705983C2
:1058C0001871C3E902001861BEF1000F6BD0BEF180
:1058D000040F4FF0000236D30EF0FC0003232146E4
:1058E000DF1E81F854729F1E81F878725F1E81F866
:1058F0009C725F1C1D1D81F85522874281F8582239
:10590000C1E99722C1F8642281F8792281F87C22CA
:10591000C1E9A022C1F8882281F89D2281F8A02245
:10592000C1E9A922C1F8AC2281F8C12281F8C032B4
:105930002B4681F8C422C1E9B222C1F8D02201F17C
:105940009001CDD1EA1EBCF1000F2CD002EBC203B6
:1059500004F515700021BCF1010F00EB830700F87E
:10596000232079703971C7E9021139611BD0531CAA
:10597000BCF1020F03EBC30700EB870600F82730EA
:1059800071703171C6E9021131610CD0911C002790
:1059900001EBC10200EB820300F822105F701F715F
:1059A000C3E902771F61D4E90001277CD4E902230F
:1059B000009706F099FA38B1022084F89504012086
:1059C00001B0F0BD0120704700206074012084F810
:1059D0009504207B012802D12046FFF755F8206866
:1059E00006F072FA002001B0F0BD000000000000D7
:1059F000B0B586B000210068C4F2080100248842D6
:105A00000594CDE903440294019401D006B0B0BDE1
:105A100000F0D2F844F2D84501A9C5F60205A868FD
:105A200040F00100A860A86800F001000090009814
:105A30004FF4C05001900220CDE902040A200590E5
:105A400000200494C5F60200FEF766F828680021DD
:105A500040F0006028602868002200F0006000909C
:105A600000986520FEF7D0FF6520FEF7B9FF06B06D
:105A7000B0BD00000000000010B50446C07928B198
:105A8000022801D0FCF798F9012100E00021D4F8A8
:105A9000E00405F069FBD4F8E004BDE8104005F02F
:105AA00017BB000000000000D0F8E00405F040BB88
:105AB000D0F8E00405F048BB90F89424012A01D105
:105AC0000220704710B5012280F8942441740446E6
:105AD0000268104607F034F9002084F8940410BDE1
