:020000040800F2
:10000000D04F0024650300083911000829110008A9
:100010003111000871050008791300080000000084
:10002000000000000000000000000000A111000816
:10003000790500080000000041110008C9110008FE
:100040007F0300087F0300087F0300087F03000888
:100050007F0300087F0300087F0300087F03000878
:100060007F0300087F0300087F0300087F03000868
:100070007F0300087F0300087F0300087F03000858
:100080007F0300087F0300087F0300087F03000848
:100090007F0300087F0300087F0300087F03000838
:1000A0007F0300087F0300087F0300087F03000828
:1000B0007F0300087F0300087F0300087F03000818
:1000C0007F0300087F0300087F0300087F03000808
:1000D0007F0300087F0300087F0300087F030008F8
:1000E0007F0300087F030008000000007F03000872
:1000F0007F0300087F0300087F0300087F030008D8
:100100007F0300087F0300087F0300087F030008C7
:100110007F0300087F0300087F0300087F030008B7
:100120007F0300087F0300087F0300087F030008A7
:100130007F0300087F0300087F0300087F03000897
:1001400000000000000000000000000000000000AF
:100150007F0300087F0300087F0300087F03000877
:100160007F0300087F0300087F0300087F03000867
:100170007F0300087F0300087F0300087F03000857
:100180007F0300087F0300087F0300087F03000847
:100190007F0300087F0300087F0300087F03000837
:1001A0007F0300087F0300087F0300087F03000827
:1001B0007F0300087F0300087F0300087F03000817
:1001C0007F0300087F0300087F0300087F03000807
:1001D0007F0300087F0300087F0300087F030008F7
:1001E0007F0300087F0300087F0300087F030008E7
:1001F0007F0300087F0300087F0300087F030008D7
:100200007F0300087F0300087F0300087F030008C6
:100210007F0300087F0300087F0300087F030008B6
:100220007F0300087F0300087F0300080000000030
:100230007F0300087F030008000000007F03000820
:100240007F0300087F0300087F0300087F03000886
:100250007F0300087F0300087F0300087F03000876
:100260007F0300087F0300087F0300087F03000866
:100270007F0300087F0300087F03000800000000E0
:100280007F0300087F0300087F03000800000000D0
:10029000000000007F03000800F002F800F052F8B0
:1002A00014A696E8000CB244B344DA4501D100F03C
:1002B00049F8BAE80F000FA696E83000A5EB040550
:1002C00004EB0607AAEB0704A7F101074FEA15158F
:1002D0004FEA3414A4F10104AC4201D300F032F827
:1002E00013F0010F18BFFB1A43F0010300F001F8EF
:1002F000DBE7184784310000A4310000103A24BF26
:1003000078C878C1FAD8520724BF30C830C144BF7A
:1003100004680C6070470000704700000023002450
:1003200000250026103A28BF78C1FBD8520728BF05
:1003300030C148BF0B6070471FB503F06BF81FBD9D
:1003400010B510BD00F0D7F81146FFF7F5FF01F02A
:1003500017F800F0F5F803B4FFF7F2FF03BC00F064
:10036000FDF800000948804709480047FEE7FEE71E
:10037000FEE7FEE7FEE7FEE7FEE7FEE7FEE7FEE755
:1003800004480549054A064B70470000A9120008B9
:1003900099020008D0490024D04F0024D04B0024FB
:1003A000D04B0024032A40F2308010F0030C00F000
:1003B000158011F8013BBCF1020F624498BF11F89F
:1003C00001CB00F8013B38BF11F8013BA2F1040258
:1003D00098BF00F801CB38BF00F8013B11F00303D0
:1003E00000F05780083AC0F0088051F8043B083A02
:1003F00051F804CBA0E80810F5E7121D5CBF51F8D6
:10040000043B40F8043BAFF30080D20724BF11F84F
:10041000013B11F801CB48BF11F8012B24BF00F8B4
:10042000013B00F801CB48BF00F8012B704702F0F8
:10043000FF0343EA032242EA024200F002B84FF00F
:10044000000200B5134694469646203922BFA0E824
:100450000C50A0E80C50B1F12001BFF4F7AF090730
:1004600028BFA0E80C5048BF0CC05DF804EB890021
:1004700028BF40F8042B08BF704748BF20F8022B64
:1004800011F0804F18BF00F8012B7047704770477C
:10049000704710B5203AC0F00B80B1E81850A0E8C2
:1004A0001850B1E81850A0E81850203ABFF4F5AF42
:1004B0005FEA027C24BFB1E81850A0E8185044BF9E
:1004C00018C918C0BDE810405FEA827C24BF51F80B
:1004D000043B40F8043B08BF7047D20728BF31F8FF
:1004E000023B48BF11F8012B28BF20F8023B48BF50
:1004F00000F8012B7047754600F02CF8AE46050059
:100500006946534620F00700854618B020B5FFF72E
:1005100037FFBDE820404FF000064FF000074FF0D6
:1005200000084FF0000BAC46ACE8C009ACE8C009CD
:10053000ACE8C009ACE8C00921F007018D4670475E
:1005400010B50446AFF300802046BDE81040FFF729
:1005500002BF00000048704718000024014918201D
:10056000ABBEFEE72600020070470000000000005E
:10057000FEE70000000000007047000000000000DF
:1005800041F20000C5F600400068000C7047000012
:1005900044F2D020C2F20040006870470000000022
:1005A00040F2000044F2D021C2F20040C2F2004109
:1005B00000780A68104408607047000000000000DE
:1005C00080B5032000F0F0F800F052FA44F2184130
:1005D00043F22E43C5F60201C0F600030A68C2F3D7
:1005E00003229A5C096801F00F0102F01F02595CB6
:1005F000D04040F20C02C2F2004201F01F0120FA8A
:1006000001F1116040F20801C2F2004108600F20C0
:1006100000F00AF800281CBF012080BD00F07CF823
:10062000002080BD00000000B0B540F20005C2F21D
:1006300000452978F1B1044640F20800C2F20040BA
:100640004FF47A72B2FBF1F10068B0FBF1F000F008
:1006500053FD0F2C01464FF001000AD8002918BFA6
:10066000B0BD4FF0FF300022214600F06DF80020B1
:100670006C60B0BD0120B0BD10B54EF6A05E4378F1
:10068000CEF2000E90F800C04EF8083CDEF80030C4
:1006900023F00103CEF8003043684EF8043C037B9E
:1006A000C27A817A447B120642EA0372837B42EA71
:1006B000C141C27B41EA8441447A41EA4341007A24
:1006C00041EA024141EA042141EA400040EA0C00CB
:1006D000CEF8000010BD00004EF62450CEF200000F
:1006E000BFF35F8F016821F4803101600021016751
:1006F00070470000000000004EF6245140F0010059
:10070000CEF200010867086840F480300860BFF34B
:100710004F8FBFF36F8F704781B044F2F4400022D7
:10072000C5F60200016841F00201016000680F2176
:1007300000F0020000906FF00100009B01B000F09B
:1007400003B800000000000070B54EF60C5C4FF0DE
:10075000FF36CEF2000C00F1604505F56445DCF88B
:100760000030C3F3022E8EF00703042B28BF0423AE
:10077000BEF1030406FA03F321EA030100F00F03BC
:1007800038BF0024043B0028634406FA04F048BF45
:1007900003F10C05A14022EA000008430001287083
:1007A00070BD0000000000004EF60C514FF6FF0334
:1007B000CEF200010A681A4060F30A2242F080601B
:1007C00040F0FD7008607047B0B544F60C05C5F602
:1007D000020529684907296806D401F00701081AAB
:1007E00018BF0120B0BD00BF21F0070108432860F9
:1007F000FFF7CEFE044600BF55F8080C800407D46E
:10080000FFF7C6FE001BB0F57A7FF5D90120B0BD19
:100810000020B0BD000000002DE9F04381B00028A9
:1008200000F0208142F200090446C5F20029D9F8FF
:10083000000000F00F0088420DD2D9F8000020F02F
:100840000F000843C9F80000D9F8000000F00F00BD
:10085000884240F00781206844F218464207C5F6F6
:1008600002060AD52269336803F070039A4204D95C
:10087000336823F070031A43326002070AD56269B5
:10088000736803F070039A4204D9736823F070030D
:100890001A437260C2060AD5A269736803F4E06362
:1008A0009A4204D9736823F4E0631A4372608206A3
:1008B0000AD5E269B36803F070039A4204D9B368B9
:1008C00023F070031A43B26010F002020AD0E3680A
:1008D000376807F00F07BB4204D9376827F00F07C6
:1008E0003B433360C3073FD0306820F47062D4E9E3
:1008F00001031A433260012856F8182C0AD0032845
:1009000004D002280AD192030BD4ABE0920108D4A0
:10091000A8E000BFD20504D4A4E000BF520740F114
:10092000A180884656F8081C21F00701084346F8C4
:10093000080CFFF72DFE054641F2883756F8080CE3
:10094000616800F03800B0EBC10F09D0FFF720FE5E
:10095000401BB842F2D9032001B0BDE8F08300BFCC
:100960002068414600F0020252B1E268336803F0A9
:100970000F039A4204D2336823F00F031A43326004
:10098000D9F8002002F00F028A420CD9D9F80020D1
:1009900022F00F020A43C9F80020D9F8002002F023
:1009A0000F028A425ED141070AD52169326802F0FE
:1009B0007002914204D2326822F070021143316019
:1009C00001070AD56169726802F07002914204D28F
:1009D000726822F0700211437160C1060AD5A169E4
:1009E000726802F4E062914204D2726822F4E0621A
:1009F0001143716080060AD5E069B16801F07001A9
:100A0000884204D2B16821F070010843B06000F060
:100A10002FF8316843F22E42C0F60002C1F30321E1
:100A2000515C336803F00F0301F01F01D25C20FA20
:100A300001F102F01F0040F20C02C2F2004221FA62
:100A400000F0106040F2040040F20802C2F20040E0
:100A5000C2F200420068116001B0BDE8F043FFF748
:100A6000E3BD00BF012001B0BDE8F083000000003D
:100A700044F20041C5F602010869C0F3C200032830
:100A800016D002280ED098BB0868800649F20000F4
:100A9000C0F2D03058BF70470968C1F3C101C840E7
:100AA000704700BF47F64000C0F27D10704700BF9E
:100AB0008A6A886AC0F3051CC86ABCF1000F4B6BD8
:100AC0001CD000F00100404200EAD3006FF35F3019
:100AD00000EE100A02F003000228B8EE400A0FD020
:100AE00090B90868800613D49FED251A1DE000BF59
:100AF00040F60010C0F23D00704700BF0020704774
:100B00009FED1E1A11E000BF9FED1B1A0DE000BF04
:100B1000086849F20002C0F2D032C0F3C10022FAE4
:100B200000F001EE100AB8EE411A086B9FED153A7D
:100B30006FF35F2002EE100A086BC0F34620B8EE98
:100B4000422A013000EE032A00EE10CAB7EE003A46
:100B5000B8EE400A81EE000A32EE031A20EE010AD6
:100B600001EE100AB8EE411A80EE010ABCEEC00A8E
:100B700010EE100A704700BF0024744A20BCBE4B20
:100B80000024744C0000003970B3F0B581B0044605
:100B9000007844F20046C007C5F6020626D1207848
:100BA000800740F1C280306910F03801B06A3FD050
:100BB000182908BF5FEA80703AD0E06831680028E1
:100BC00062D021F0190108433060FFF7E1FC0546CF
:100BD0003068400748D4FFF7DBFC401B0228F7D9F8
:100BE000032001B0F0BD00BF01207047306900F064
:100BF0003801B06A102905D018290BD100F0030084
:100C0000022807D130688003C9D560680028C6D1A2
:100C10003CE100BF6168306800294FD0B1F5A02FDA
:100C200044D0B1F5803F5FD140F4803062E000BF36
:100C300030684007E06802D5002800F0278131685D
:100C400021F0190108433060FFF7A2FC054600BF00
:100C50003068400708D4FFF79BFC401B02284FF088
:100C60000300F5D901B0F0BDFFF78AFC41F20301A2
:100C700088424FD820697168402821F47C3151D1D5
:100C800041F4003050E000BF21F001003060FFF778
:100C90007FFC05463068400747D5FFF779FC401BCD
:100CA00002284FF00300F5D9DCE700BF40F48020B4
:100CB0003060306840F480301CE000BF20F48030A9
:100CC0003060306820F480203060FFF761FC05461A
:100CD000306880037FF563AFFFF75AFC401B642840
:100CE0004FF00300F4D9BDE720F480303060306865
:100CF00020F480203060FFF74BFC0546306880030D
:100D00003FF54DAFFFF744FC401B6428F6D90320A4
:100D100001B0F0BD7068216920F0FE4040EA01603A
:100D200002E000BF41EA003070602078C00654D570
:100D3000306900F03801B06A082905D0182919D1A6
:100D400000F00300012815D13068C00503D5E06923
:100D5000802840F09B80FFF713FC41F2030188429A
:100D60001ED8206A7168202821F0F84132D141F064
:100D7000804031E0E0690028306819D040F0800000
:100D80003060FFF705FC05463068C005E3D4FFF787
:100D9000FFFB401B02284FF00300F5D962E700BFBC
:100DA000F068216A20F07C5040EA0160F06014E0B5
:100DB00020F080003060FFF7EBFB05463068C0058F
:100DC0000BD5FFF7E5FB401B02284FF00300F5D9D8
:100DD00048E700BF41EA80607060207800073FD498
:100DE0002078800656D42078400769D4656A9DB380
:100DF000306900F03800182840F0A880012DB16A51
:100E0000306B43D001F00302A36A9A423ED1C1F392
:100E10000511E26A914239D10146226B6FF35F21DD
:100E2000013A914232D1C0F34622616B01398A42C4
:100E30002CD1C0F30642A16B01398A4226D1C0F3FE
:100E40000660E16B0139884220D1706BA16CC0F360
:100E5000CC00814240F03481002001B0F0BD00BFE1
:100E600060690028706F41D040F001007067FFF7A3
:100E70008FFB0546706F8007B2D4FFF789FB401BDC
:100E80000228F7D9032001B0F0BD00BF012001B056
:100E9000F0BD00BFA0690028306845D040F4805004
:100EA0003060FFF775FB0546306880049BD4FFF780
:100EB0006FFB401B0228F7D9032001B0F0BD00BF33
:100EC000D6F8000440F48070C6F80004FFF760FB19
:100ED000054600BFD6F80004C00519D4FFF758FB3B
:100EE000401B6428F6D9032001B0F0BD20F00100BA
:100EF0007067FFF74DFB0546706F80077FF570AF99
:100F0000FFF746FB401B02284FF00300F4D9A9E687
:100F1000A168306F002943D0052939D0012957D164
:100F200040F001005AE000BF20F480503060FFF72D
:100F30002FFB0546306880047FF555AFFFF728FB8F
:100F4000401B02284FF00300F4D98BE6306820F0F4
:100F500080703060FFF71CFB022D05460CD100BFEE
:100F6000306880014CD5FFF713FB401B02284FF07F
:100F70000300F5D976E600BF306880017FF56CAFDD
:100F8000FFF706FB401B02284FF00300F4D969E687
:100F900040F004003067306F40F001001EE000BFF9
:100FA00020F001003067306F20F004003067FFF759
:100FB000EFFA054641F28837306F80077FF516AFAC
:100FC000FFF7E6FA401BB8424FF00300F4D949E6B8
:100FD00020F001003067306F20F004003067FFF729
:100FE000D7FA054641F28837306F80073FF5FEAEED
:100FF000FFF7CEFA401BB8424FF00300F4D931E6B8
:1010000004F12807B06A40F2F33188438ECF0843D9
:10101000591E40EA02104FF47E426FF35F21B06226
:1010200002EB47204FF4FE0280B2E36B0844A16B51
:1010300002EB01414FF0FE4201F4FE0102EB0362BC
:10104000084402F0FE4108443063F06A4FF6F8713C
:1010500020F00100F062706BA26C884340EAC2008D
:101060007063F06A216C20F00C000843F062F06AB3
:10107000616C20F002000843F062F06A40F48030B6
:10108000F062F06A40F40030F062F06A40F48020D0
:10109000F062F06A40F00100F062306840F0807069
:1010A0003060FFF775FA0446306880013FF5D4AE32
:1010B000FFF76EFA001B02284FF00300F4D9D1E5C8
:1010C000F06A20F00100F062FFF762FA0546FFF7D0
:1010D0005FFAA842FBD0706B4FF6F871A26C8843A0
:1010E00040EAC2007063F06A40F00100F062002044
:1010F00001B0F0BD00000000411E0020B0EB116FF8
:1011000002D00120704700BF4EF21002F023CEF251
:10111000000251604EF62351CEF200010B70072100
:101120009060116070470000FEE7000000000000C2
:10113000FEE7000000000000FEE7000000000000E5
:10114000EFF30980BFF36F8F144B1A681EF0100F76
:1011500008BF20ED108A20E9F04F10602DE909004A
:101160004FF0500080F31188BFF34F8FBFF36F8FA4
:1011700001F042FA4FF0000080F31188BDE8090049
:1011800019680868B0E8F04F1EF0100F08BFB0EC07
:10119000108A80F30988BFF36F8F704780000024A6
:1011A000064B19680868B0E8F04F80F30988BFF370
:1011B0006F8F4FF0000080F311887047800000248B
:1011C000012000F00DF9FBE780B5FFF7E9F901F028
:1011D0002BFF012808BF80BDBDE8804001F050BB57
:1011E000B0B59CB044F6180409A84C21C5F6020419
:1011F000FFF725F902200025CDE90755CDE9055572
:10120000CDE90355CDE90155FFF7DEFA40F22C4058
:101210000095C5F60000016821F001010160006839
:10122000012100F001000090206861F38F30206000
:10123000206800F44040009000982068800409D4A1
:10124000206880045CBF20685FEA804002D4206888
:101250008004F2D50220099001200C9040200D90CE
:1012600009A800241294FFF78FFC28B1EFF3108037
:1012700072B600BFFEE700BF3F200121CDE90104A7
:1012800001A8CDE90344CDE90544CDE90744FFF7C2
:10129000C3FA28B1EFF3108072B600BFFEE700BFBB
:1012A0001CB0B0BD000000004EF6885042F2000CA9
:1012B000CEF20000C5F2002C016841F4700101601B
:1012C000DCF8000000F00F00062806D8DCF800006B
:1012D000072161F30300CCF8000044F200404EF611
:1012E0007F52C5F60200CEF6F622016841F00101F8
:1012F00001600021016103681A400260DCF80020EF
:10130000120706D5DCF80020072363F30302CCF8AC
:10131000002040F200228161C161C0F2022201621C
:1013200082620022C0F2FF12C26240F28022C0F24A
:101330000112026341638263C16302644164026813
:1013400022F480220260016641F20000C5F60040EE
:101350000068B1EB507F05D148F208100121C5F2B9
:101360000010016044F2000043F2D201C5F20020F7
:101370000160704700000000FEE700000000000070
:1013800084B001200090FFF7A7F90020019048F2F7
:101390001F70029040F2011003906846FFF76CF94D
:1013A0000420FFF7A9F9FFF70BF9FFF719FF00F089
:1013B00027F841F2C11043F24042C0F60000C0F6E7
:1013C0000002002100F054F840F27C11C2F200410A
:1013D000086000F02DF800BFFEE7000000000000EC
:1013E000EFF3058100291CBF6FF00500704728B19D
:1013F00080B580B200F0A8FF002080BD00207047BB
:10140000EFF3058000281CBF6FF00500704740F225
:101410007810C2F20040016800291CBF4FF0FF3075
:1014200070470121016000207047000000000000AB
:10143000EFF3058000281CBF6FF00500704740F2F5
:101440007810C2F20040016801290DD180B54EF636
:101450001F510022CEF200010A700221016001F04A
:101460004BF8002080BD00BF4FF0FF3070470000F8
:10147000F0B585B08C4600230493EFF30581B0B33B
:10148000A9BB2AB39469002C08BF1824382C2ED885
:101490001179C9072BD156694FEA960E002ED2E971
:1014A0000257734608BF802311681DB35C2F25D3F4
:1014B00012690023002A18BF002E18D0CDE900427F
:1014C00072466346029501F06FFD05B0F0BD00BFA6
:1014D0008023182400219AB2634604AFCDE9004767
:1014E00001F032FD04990023012808BF0B4618467D
:1014F00005B0F0BD17B91269002AECD000231846D8
:1015000005B0F0BD000000002DE9F041044600F0F8
:10151000F3FD40F2780640F27025C2F20046C2F2B6
:101520000045706901307061B06858B1B069002839
:1015300040F00781B068E16AC06A884298BFB46031
:10154000FFE000BFB4607069012840F0FA802846CF
:1015500000F072FD05F1140000F06EFD05F12800A9
:1015600000F06AFD05F13C0000F066FD05F1500059
:1015700000F062FD05F1640000F05EFD05F1780009
:1015800000F05AFD05F18C0000F056FD05F1A000B9
:1015900000F052FD05F1B40000F04EFD05F1C80069
:1015A00000F04AFD05F1DC0000F046FD05F1F00019
:1015B00000F042FD05F5827000F03EFD05F58C70EF
:1015C00000F03AFD05F5967000F036FD05F5A070C7
:1015D00000F032FD05F5AA7000F02EFD05F5B4709F
:1015E00000F02AFD05F5BE7000F026FD05F5C87077
:1015F00000F022FD05F5D27000F01EFD05F5DC704F
:1016000000F01AFD05F5E67000F016FD05F5F07026
:1016100000F012FD05F5FA7000F00EFD05F5027000
:1016200000F00AFD05F5077000F006FD05F50C70E9
:1016300000F002FD05F5117000F0FEFC05F51670D6
:1016400000F0FAFC05F51B7000F0F6FC05F52070C3
:1016500000F0F2FC05F5257000F0EEFC05F52A70AF
:1016600000F0EAFC05F52F7000F0E6FC05F534709B
:1016700000F0E2FC05F5397000F0DEFC05F53E7087
:1016800000F0DAFC05F5437000F0D6FC05F5487073
:1016900000F0D2FC05F54D7000F0CEFC05F552705F
:1016A00000F0CAFC05F5577000F0C6FC05F55C704B
:1016B00000F0C2FC05F5617000F0BEFC05F5667037
:1016C00000F0BAFC05F56B7000F0B6FC05F5707023
:1016D00000F0B2FC05F5757000F0AEFC05F57A700F
:1016E00000F0AAFC05F57F7000F0A6FC05F582600D
:1016F00000F0A2FC05F2244000F09EFC05F5876096
:1017000000F09AFC05F24C4000F096FC40F25018B4
:10171000C2F20048404600F08FFC08F1140738463A
:1017200000F08AFC06F1600000F086FC06F138004B
:1017300000F082FC06F14C0000F07EFCC6F8208030
:101740007762F068B16A421CE06AF26088426264C3
:1017500004F1040188BFB06200EB800005EB80005B
:1017600000F0AEFC00F0F0FCB06988B1B068E16A4E
:10177000C06A884228BFBDE8F0814EF604504FF0A1
:101780008051CEF200000160BFF34F8FBFF36F8F27
:10179000BDE8F0810000000040F2780540F27026BC
:1017A0004EF60458C2F20045C2F20046CEF20008DE
:1017B0004FF0805703E000BF204600F0DDFC2869B1
:1017C000D0B100F099FC686CC468201D00F000FCEA
:1017D00068690138686128690138286100F0B4FC43
:1017E00094F859000228EAD00128E5D070B9206B9E
:1017F00000F0C2FCE0E700BF30680228DFD3C8F881
:101800000070BFF34F8FBFF36F8FD8E74FF05000DA
:1018100080F31188BFF36F8FBFF34F8FFEE7000097
:101820002DE9F0470A9C16460F468246206B910030
:10183000A5229846DDE90859FEF7F9FD206B002F37
:1018400000EB8600A0F1040020F0070642D03878B3
:1018500084F83400D0B3787884F83500B0B3B87821
:1018600084F8360090B3F87884F8370070B338798C
:1018700084F8380050B3787984F8390030B3B879F7
:1018800084F83A0010B3F87984F83B00F0B1387A64
:1018900084F83C00D0B1787A84F83D00B0B1B87AD1
:1018A00084F83E0090B1F87A84F83F0070B1387B3C
:1018B00084F8400050B1787B84F8410030B1B87BA7
:1018C00084F8420010B1F87B84F84300002084F8CB
:1018D000430002E0002084F83400372D04F10400B6
:1018E00028BF37250027C4E91357E56200F0B0FB95
:1018F00004F1180000F0ACFBC5F13800208330463D
:101900005146424624616462676584F8587000F06D
:1019100047FBB9F1000F206018BFC9F80040BDE8CF
:10192000F08700000000000008480068006880F3AD
:1019300008884FF0000080F3148862B661B6BFF3E8
:101940004F8FBFF36F8F00DF00BF000008ED00E096
:1019500081B00020009040F21000C2F20040006808
:101960004FF0500181F31188BFF36F8FBFF34F8F9A
:10197000013003D0FEE700BF009838B9009828B9BD
:101980000098002804BF00980028F5D001B07047E7
:1019900088B040F2EC0A0DF11009C2F2004AEB46A1
:1019A000DAF80C0005681DB1C068048801E000BFCA
:1019B000002400F019FE01F047FBBAF800100646BB
:1019C000884220D3002DAAF8006053D0A64251D3FC
:1019D00001F04EFCDAF80C00C068C7683D1D2846CF
:1019E00000F0F6FA97F82800410747D400F0FA0013
:1019F00087F828008AE000BFA8803946DAF80C0092
:101A00002D6100F029FBDAF80C00016841B3C068D1
:101A1000C56804882F1D384600F0DAFA296A28467E
:101A2000884795F828004007EDD5288B204481B2DF
:101A3000A142E1D8DAF80400002800F0518100202A
:101A40000490ADF81440069501F0EEFADAF80400BF
:101A500000220023494600F09BFF0028D3D13FE13C
:101A6000DAF81010AAF80060CAE9031001F000FCCF
:101A700055E000BF65B1002210E000BF388B3F6128
:101A80000119B9808AB2B2421ED90AF10C0021E0D4
:101A9000DAF810000068B0FA80F04209A11BDAF809
:101AA000040089B200F01CFC01F0E2FBB8BB4EF66A
:101AB00004504FF08051CEF200000160BFF34F8F11
:101AC000BFF36F8F2BE000BF311B89B2814207D279
:101AD0000AF110000068294600F0BEFA16E000BFC7
:101AE000DAF80400002800F0198100200490ADF815
:101AF0001440069701F098FADAF804000022002357
:101B0000494600F045FF002800F00881396A384650
:101B1000884704E00AF11002106800F09DFADAF834
:101B200004000022594601F097F800283FF438AF2E
:101B30000098B0F1FF3F06DCDDE9012003999047F2
:101B400000980028EBD4029E706910B1301D00F09F
:101B50003FFA01F079FABAF80010074688420CD330
:101B60000098AAF8007009283FD9D8E7A880214634
:101B7000DAF80C002D6100F06FFADAF80C00016859
:101B800051B3C068C568B0F800802C1D204600F035
:101B90001FFA296A2846884795F828004007ECD59F
:101BA000288B404481B24145E0D8DAF8040000288F
:101BB00000F08C8000200490ADF81480069501F0B0
:101BC00033FADAF8040000220023494600F0E0FE70
:101BD0000028D2D17AE000BFDAF81010CAE9031069
:101BE0000098AAF80070092899D8DFE800F00505E8
:101BF000055F476705055F47BDF80400328B96F81F
:101C0000281036611518ABB241F0010186F8281092
:101C10003146BB4221F8045F08D987420AF10C0221
:101C2000BFF47AAF834206D276E700BF381A80B29B
:101C30009042FFF46FAF316A3046884796F828002B
:101C400040077FF56CAFDAF80400002852D0BDF8E9
:101C50000400318B002204920844ADF8140006966B
:101C600001F0E2F9DAF8040000220023494600F00E
:101C70008FFE00287FF453AF3CE000BFBDF80400A6
:101C800096F828103083002841F0010186F82810CA
:101C90003AD038440AF1100281B2B942314688BFC5
:101CA0000AF10C0221F8040F366135E796F8280096
:101CB00000F0FE0086F8280031E700BF96F8280003
:101CC0008107F5D4304600F057FA28E74FF050006E
:101CD00080F31188BFF36F8FBFF34F8FFEE700BF14
:101CE0004FF0500080F31188BFF36F8FBFF34F8F19
:101CF000FEE700BF4FF0500080F31188BFF36F8FF5
:101D0000BFF34F8FFEE700BF4FF0500080F3118804
:101D1000BFF36F8FBFF34F8FFEE700BF4FF0500050
:101D200080F31188BFF36F8FBFF34F8FFEE7000082
:101D3000F0B581B0044600F0DFF994F94560012E5A
:101D400010DB04F1240503E0F0B2013E012809D9BB
:101D5000286838B1284601F04FFA0028F4D000F086
:101D600043FBF1E7FF2684F8456000F0EDF900F051
:101D7000C3F994F94470012F10DB04F1100503E05E
:101D8000F8B2013F012809D9286838B1284601F086
:101D900033FA0028F4D000F027FBF1E784F8446020
:101DA00001B0BDE8F04000F0CFB900000000000035
:101DB00070B5044600F018FC40F2281CC2F2004C3A
:101DC000DCF8042052B19CF80000002818BF4FF046
:101DD00000404FF0000544BB81E000BF40F2D060FE
:101DE000C2F20040420700F5705200F1070122F0F4
:101DF000070218BF21F00700A2F10803CCF8043055
:101E00000021CCE9060142E90211191A4160DCF80F
:101E10000420026001208CF800004FF00040CCE963
:101E20000211002C4FF0000559D0204057D124F06A
:101E3000070000F11003600708BF04F10803DCF895
:101E40000800591E81424AD2604650F818EFDEF869
:101E500004509D422BD2DEF80010B9B174464D6893
:101E60009D4217D20E68AEB175689D4216D2306899
:101E7000A0B145689D4215D204689CB165689D4239
:101E800014D22168A6460029E9D110E00CF118000F
:101E90000DE000BF8E46204609E000BFB64608466A
:101EA00005E000BF8646304601E000BFA6469645E5
:101EB00014D0E91A02681129DEF8004004604DD3FD
:101EC0000EEB0305680719D04FF0500080F311881E
:101ED000BFF36F8FBFF34F8FFEE700BF002501F008
:101EE000C7F968075AD04FF0500080F31188BFF34C
:101EF0006F8FBFF34F8F00BFFEE700BF0CF11800DC
:101F00006960CEF8043000BF0168A9420AD20868AF
:101F1000A8420BD20168A94204D208680B46A84225
:101F2000F2D304E00346084601E000BF0B465C68BC
:101F30001919A942696802D121441D4659606C18DB
:101F4000844207D1DCF80440A0421EBFD0E900045F
:101F500021446960AB42286018BF1D60DEF80400B0
:101F600002F10805DCE90213091ACCF808109942BD
:101F700038BFCCF80C109CF8001000294FF000017D
:101F800018BF40F00040CEE90010DCF8100001302E
:101F9000CCF8100001F06CF96807A4D1284670BD98
:101FA00041F6511321F0010140F8081C4FF08071F7
:101FB00040F8041CA0F14401C0F6000340F80C3CBA
:101FC0006FF0020340E90932084670470000000044
:101FD0000169D0E90132D1F804C09A6084455360A8
:101FE00008BF4A600022026108680138086008687A
:101FF000704700000000000044F2D443C2F20043E6
:10200000036044F2D420C2F20040086080201060D7
:10201000704700000000000044F63013C2F2004395
:10202000036044F23050C2F2004008604FF4807008
:10203000106070470000000002464FF6FF7122F862
:10204000081F00214260C0E90322016070470000C0
:10205000002101617047000010B5B1F800C04FF6D3
:10206000FF72944504D10269D2F804E01CE000BF7D
:1020700000F108046268138863450DD853681C8812
:1020800064450DD85A68148864450BD85468A64630
:1020900023886345EED907E09646224604E000BF58
:1020A0009E4601E096461A46C1F804E0CEF80810B4
:1020B0008A605160086101680131016010BD000053
:1020C000D0F800C043684B609A688A60996051609C
:1020D00008610CF101010160704700000000000080
:1020E000DFF80C00016841F47001016070470000E6
:1020F00088ED00E0000000004FF0500080F31188F0
:10210000BFF36F8FBFF34F8F40F21000C2F2004059
:102110000168002901F10101016001D0704700BF91
:102120004EF60450CEF200000068000608BF70476B
:102130004FF0500080F31188BFF36F8FBFF34F8FC4
:10214000FEE700000000000040F21000C2F2004074
:10215000016839B10139016018BF7047002080F370
:10216000118870474FF0500080F31188BFF36F8FD4
:10217000BFF34F8FFEE7000070B5002808BF70BDA9
:1021800040F22814C2F200442178002918BF4FF011
:10219000004150F8042C11420ED0A0F108052B6824
:1021A000A3B14FF0500080F31188BFF36F8FBFF3DE
:1021B0004F8F00BFFEE700BF4FF0500080F3118843
:1021C000BFF36F8FBFF34F8FFEE700BF22EA01011D
:1021D00040F8041C064600F007FA56F8041CA068F4
:1021E0000844A06004F118000368AB420AD21868E2
:1021F000A84225D20368AB4204D218681A46A84206
:10220000F2D301E0024618465368D618AE4202D116
:102210001944154651606B18834206D16368984291
:102220001EBFD0E9000319446960AA42286018BFA4
:102230001560606901306061BDE8704001F018B858
:102240001A465368D618AE42E5D1E1E70000000017
:102250004EF210000021CEF2000044F6D352C1F23B
:1022600062020160816040F20801C2F20041096827
:10227000A1FB02124FF0FF3101EB921141600721E7
:10228000016070470000000044F68C1CC2F2004C54
:10229000DCF8003003B3634653F8082FEAB1634615
:1022A00053F8102FCAB1634653F8182FAAB16346EA
:1022B00053F8202F8AB1634653F8282F6AB163463A
:1022C00053F8302F4AB15CF8382F6346002A08BF14
:1022D000C3E90010704700BF6346C3E900107047B0
:1022E00070B515460E460446FFF706FF94F8440005
:1022F000FF280DD094F84500FF2810D0FFF724FFE9
:10230000A06BA0B12046BDE87040FFF711BD00BF33
:10231000002084F8440094F84500FF28EED1002006
:1023200084F84500FFF710FFA06B0028EAD104F104
:10233000240031462A4600F09FF82046BDE8704050
:10234000FFF7F6BC0000000070B598B340F27804C7
:10235000C2F20044E16949B14FF0500080F31188A6
:10236000BFF36F8FBFF34F8FFEE700BFE1690646F3
:102370000131E1612588A16804310846FFF728FE94
:102380003544A068AEB2AE42858005D0606AA168CF
:102390000431FFF761FE08E0206AA1680431FFF70D
:1023A0005BFE6088864238BF658000F061FF0028D0
:1023B00018BF70BD4EF604504FF08051CEF20000B1
:1023C0000160BFF34F8FBFF36F8F70BD000000003F
:1023D00040F27801C2F200414A6B026009888180B4
:1023E000704700000000000040F278000121C2F2B6
:1023F000004001637047000070B5F8B140F2780505
:102400000C46C2F20045A9681831FFF725FE2E8858
:10241000A8680430FFF7DCFD4FF6FF70844217D048
:102420003444A868A6B2A642848019D0686AA96814
:102430000431BDE87040FFF70FBE00BF4FF0500001
:1024400080F31188BFF36F8FBFF34F8FFEE700BF9C
:10245000A868011D05F14C00BDE87040FFF730BED3
:10246000286AA9680431FFF7F7FD6888864238BFFB
:102470006C8070BD00000000F0B581B0C0B140F2CA
:1024800078060C46C2F200461546B1681831FFF7CF
:1024900017FE3788B0680430FFF79AFD95B1B06831
:1024A000011D06F14C0001B0BDE8F040FFF708BE89
:1024B0004FF0500080F31188BFF36F8FBFF34F8F41
:1024C000FEE700BF3C44B068A5B2A542848007D0B7
:1024D000706AB168043101B0BDE8F040FFF7BCBDDF
:1024E000306AB1680431FFF7B7FD7088854238BFA4
:1024F000748001B0F0BD000010B588B0002005A9BF
:10250000CDE9050006A804AAFFF776FD0598002886
:102510003ED0069C002C45D0049A5C210791079977
:102520005C2949D107992063022084F8590007A843
:102530000021CDE9001041F2997029A1C0F60000F8
:1025400000230294FFF76CF92046FEF7DDFF40F20E
:1025500078040798C2F20044E062B0B100F000FFD6
:10256000411C33D0012810D14FF0500080F3118866
:10257000BFF36F8FBFF34F8F4FF6FF706080012066
:10258000A0610020208000F09BF808B010BD00BFC3
:102590004FF0500080F31188BFF36F8FBFF34F8F60
:1025A000FEE700BF4FF0500080F31188BFF36F8F3C
:1025B000BFF34F8FFEE700BF4FF0500080F311884C
:1025C000BFF36F8FBFF34F8FFEE700BF4FF0500098
:1025D00080F31188BFF36F8FBFF34F8FFEE700BF0B
:1025E00049444C450000000040F27800C2F200402F
:1025F000C1690131C161704780B540F2780EC2F205
:10260000004EDEF81C1019B10121CEF8301080BD4B
:102610000021CEF83010DEF8281040F2702CC2F203
:10262000004C01EB81025CF82230002B0CEB8203A2
:102630000CD05868426803F1080082425A6021D0E9
:10264000D068CEF80800CEF8281080BD283B09B32A
:1026500001EB810258690CEB820228BB012919D0D9
:10266000186828BB022915D053F8140C20BB032985
:1026700010D053F8280C04390028A3F15003E6D0F9
:102680002833D6E752685A60D068CEF80800CEF8F2
:10269000281080BD4FF0500080F31188BFF36F8F7A
:1026A000BFF34F8FFEE700BFA2F114030139C0E76B
:1026B000A2F128030239BCE7A2F13C030339B8E7D1
:1026C00070B584B04EF200404CF27021CEF20000A2
:1026D000C4F20F114B1CD0F800299A420AD14FF0D6
:1026E000500080F31188BFF36F8FBFF34F8F00BF8F
:1026F000FEE700BFD0F800298A4209D14FF0500010
:1027000080F31188BFF36F8FBFF34F8FFEE700BFD9
:102710000021019101788DF80B10FF2101700178E3
:102720008DF803109DF8031011F0500240F248118B
:10273000C2F200410A700BD09DF8032002F0500253
:10274000502A0FD19DF90320B2F1FF3F48DC1FE072
:102750004FF0500080F31188BFF36F8FBFF34F8F9E
:10276000FEE700BF4FF0500080F31188BFF36F8F7A
:10277000BFF34F8FFEE700BF019A013201929DF82F
:10278000032052008DF803209DF90320002A27D54D
:10279000019A013201929DF8032052008DF8032026
:1027A0009DF90320B2F1FF3F1ADC019A0132019238
:1027B0009DF8032052008DF803209DF90320B2F10B
:1027C000FF3FDFBF019A013201929DF80320DFBF76
:1027D00052008DF803209DF90320B2F1FF3FCBDDBD
:1027E000019A0024082A4FF0000206D0019A4FF403
:1027F000E063A3EB022202F4E0624A604EF6205549
:102800009DF80B10CEF200050170286840F47F009F
:102810002860286840F07F40286045F8044CFFF7A6
:1028200017FD40F21006C2F200463460FFF758FC74
:10283000D5F8140240F04040C5F81402FFF774F8D0
:10284000FFF7DAFE039430684FF0500181F31188EE
:10285000BFF36F8FBFF34F8F013003D0FEE700BF90
:10286000039838B9039828B90398002804BF03983F
:102870000028F5D0002004B070BD0000000000006A
:1028800080B54FF0500080F31188BFF36F8FBFF316
:102890004F8F00F0E5FB30B14EF604504FF0805101
:1028A000CEF200000160002080F3118880BD00009E
:1028B00070B582B060B1ABB1F1B9EAB14FF0500080
:1028C00080F31188BFF36F8FBFF34F8FFEE700BF18
:1028D0004FF0500080F31188BFF36F8FBFF34F8F1D
:1028E000FEE700BF4FF0500080F31188BFF36F8FF9
:1028F000BFF34F8FFEE700BF51B14AB94FF0500010
:1029000080F31188BFF36F8FBFF34F8FFEE700BFD7
:1029100050250195019D502D2ED1019D01250029A5
:1029200083F8465008BF1A46069E1C461A60C3E943
:102930000F01FFF7E1FBD4E90F012268002501FB3D
:102940000023013800FB0120A5636260C4E9023066
:10295000FF2084F8440084F8450004F11000FFF7DC
:102960006BFB04F12400FFF767FBFFF7EDFB84F836
:102970004C60204602B070BD4FF0500080F31188CB
:10298000BFF36F8FBFF34F8FFEE700000000000022
:102990002DE9F04F83B0ADF80A20B8B104461D46CA
:1029A000F1B1022D02D1E06B01285DD116460F4630
:1029B00000F03AFB10BB0EB34FF0500080F31188CB
:1029C000BFF36F8FBFF34F8FFEE700BF4FF0500094
:1029D00080F31188BFF36F8FBFF34F8FFEE700BF07
:1029E000206C0028DDD04FF0500080F31188BFF339
:1029F0006F8FBFF34F8F00BFFEE700BFFFF77CFB79
:102A0000022DA06B67D0E16B884264D3BDF80A0049
:102A1000002800F01B816846FFF7DAFCFFF794FB03
:102A2000FFF7E2FDFFF768FB94F84400FF2802D1AE
:102A3000002084F8440094F84500FF2802D10020CB
:102A400084F84500FFF780FB68460DF10A0100F0AD
:102A50002BFA98B12046FFF76BF900F009FC002033
:102A600003B0BDE8F08F00BF4FF0500080F3118835
:102A7000BFF36F8FBFF34F8FFEE700BF04F1100865
:102A8000FFF73AFBD4F83890E66BFFF75DFBB145F2
:102A900016D1BDF80A104046FFF7AEFC2046FFF7FE
:102AA00047F900F0E5FB80B94EF604504FF0805135
:102AB000CEF200000160BFF34F8FBFF36F8F04E0D1
:102AC0002046FFF735F900F0D3FBFFF715FBA06BAD
:102AD000E16B884266D2A66B226CDAB139462DB31F
:102AE000E068FDF75FFCE168206C2268091A9142FA
:102AF000E16003D24042A1680844E060A81E31466C
:102B0000B0FA80F0002E18BF012140090840361AA3
:102B100018E000BF2068A8B9A06800F025FBB0FA53
:102B200080F00021A16040090DE000BF6068FDF762
:102B300039FCD4E90101226C10446060884201D361
:102B4000206860600120711CA16354F8241FA9B1A2
:102B5000204600F051FB50B14EF604504FF080512A
:102B6000CEF200000160BFF34F8FBFF36F8FFFF70E
:102B7000EBFA012003B0BDE8F08F00BF0028F6D1CA
:102B80004EF604504FF08051CEF200000160BFF3CA
:102B90004F8FBFF36F8FFFF7D7FA012003B0BDE867
:102BA000F08F00BFE9460DF10A060BE02046FFF763
:102BB000BFF800F05DFBFFF79FFAA06BE16B884266
:102BC000FFF489AFBDF80A0000283FD0FFF7BCFA38
:102BD000FFF70AFDFFF790FA94F84400FF2802D1AE
:102BE000002084F8440094F84500FF2802D100201A
:102BF00084F84500FFF7A8FA4846314600F054F93A
:102C000000287FF427AFFFF777FAD4F838A0D4F87C
:102C10003CB0FFF799FADA45C8D1BDF80A10404632
:102C2000FFF7EAFB2046FFF783F800F021FB0028BE
:102C3000C1D14EF604504FF08051CEF20000016039
:102C4000BFF34F8FBFF36F8FB5E700BFFFF77CFA7D
:102C5000002003B0BDE8F08F2DE9F04F83B0ADF850
:102C60000A2098B104461546002949D00E4600F0C6
:102C7000DBF9A8B9A5B14FF0500080F31188BFF37C
:102C80006F8FBFF34F8F00BFFEE700BF4FF05000C4
:102C900080F31188BFF36F8FBFF34F8FFEE700BF44
:102CA000FFF72AFAD4F838A0BAF1000F36D0226C18
:102CB00052B1D4E90231114430469942E16001D366
:102CC0002168E160FDF76EFBAAF10100A06354F8F2
:102CD000100F70B1204600F08FFA50B14EF604503C
:102CE0004FF08051CEF200000160BFF34F8FBFF371
:102CF0006F8F0124FFF728FA204603B0BDE8F08F5C
:102D0000206C0028B2D04FF0500080F31188BFF340
:102D10006F8FBFF34F8F00BFFEE700BFBDF80A0003
:102D2000002800F0B7806846FFF752FBFFF70CFA67
:102D3000FFF75AFCFFF7E0F994F84400FF2802D1AE
:102D4000002084F8440094F8450004F12408FF288A
:102D500002D1002084F84500FFF7F6F968460DF12E
:102D60000A0100F0A1F878B12046FEF7E1FF00F07B
:102D70007FFAFFF7C1F9A56BFFF7E6F935BB002431
:102D8000204603B0BDE8F08FFFF7B6F9A56BFFF75B
:102D9000DBF92DB12046FEF7CBFF00F069FA15E014
:102DA000BDF80A104046FFF727FB2046FEF7C0FF9C
:102DB00000F05EFA50B94EF604504FF08051CEF25A
:102DC00000000160BFF34F8FBFF36F8FFFF794F9DF
:102DD000D4F838A0BAF1000F7FF469AF4FF00009C2
:102DE000EB460DF10A0713E02046FEF7A1FF00F0C5
:102DF0003FFAFFF781F9A56BFFF7A6F9002DBED0CA
:102E0000FFF77AF9D4F838A0BAF1000F7FF44FAF8A
:102E1000BDF80A0000283DD0FFF796F9FFF7E4FB64
:102E2000FFF76AF994F84400FF2808BF84F844903B
:102E300094F84500FF2808BF84F84590FFF784F90F
:102E40005846394600F030F80028CDD1FFF754F944
:102E5000A56BFFF779F92DB12046FEF769FF00F069
:102E600007FACDE7BDF80A104046FFF7C5FA20463D
:102E7000FEF75EFF00F0FCF90028C1D14EF60450C9
:102E80004FF08051CEF200000160BFF34F8FBFF3CF
:102E90006F8FB5E70024FFF757F9204603B0BDE870
:102EA000F08F000000000000B0B558B30C4699B395
:102EB0000546FFF721F940F2780C4FF6FF70C2F299
:102EC000004CBCF80030228882422FD02946B5F849
:102ED00004E0DCF834500868854201D073452DD2F7
:102EE000A3EB0E0083B29A4226D9101A2080DCF898
:102EF00034000860BCF8000000248880FFF724F943
:102F00002046B0BD4FF0500080F31188BFF36F8FA3
:102F1000BFF34F8FFEE700BF4FF0500080F31188E2
:102F2000BFF36F8FBFF34F8FFEE700BF0024FFF7A3
:102F30000BF92046B0BD00BF002020800124FFF720
:102F400003F92046B0BD00002DE9F04184B00746EA
:102F50009000984615460E46FEF72AFFF8B1044643
:102F60005C20FEF725FFB8B1DDE90A2104630023E8
:102F700080F859300446CDE90021029038463146A8
:102F80002A464346FEF74CFC2046FEF7BDFA0120D8
:102F900004B0BDE8F08100BF2046FFF7EDF84FF028
:102FA000FF3004B0BDE8F08170B586B00B9CDCB199
:102FB0000C9E1EB35C250495049D5C2D28D1DDF884
:102FC00028C0049D3463022586F85950CDF800C00E
:102FD00005ADCDE90156FEF723FC3046FEF794FA25
:102FE000059806B070BD00BF4FF0500080F3118807
:102FF000BFF36F8FBFF34F8FFEE700BF4FF050005E
:1030000080F31188BFF36F8FBFF34F8FFEE700BFD0
:103010004FF0500080F31188BFF36F8FBFF34F8FD5
:10302000FEE700000000000040F27800C2F200401D
:10303000816929B1C069B0FA80F040094000704749
:10304000012070470000000010B5FFF755F840F26E
:103050007800C2F200400488FFF776F8204610BDE1
:103060002DE9F04740F27806C2F20046F06928B137
:10307000B0880130B0800020BDE8F0873088013092
:1030800030801FFA80FA82451FD0306A006848B14C
:103090004FF0500080F31188BFF36F8FBFF34F8F55
:1030A000FEE700BF306A716A31627062706B013096
:1030B0007063306A006828B1306AC068C068808870
:1030C00002E000BF4FF6FF707080708840F27028F9
:1030D000C2F20048824501D2002432E0306A4FF645
:1030E000FF7900240068B0B929E000BFF86AB16A2E
:1030F0008842294688BFB06200EB800008EB800060
:10310000FEF7DEFFF86AB168C96A326A884228BFF2
:103110000124106898B1306AC068C7683D4635F828
:10312000040F82450AD32846FEF752FFB86A0028EA
:10313000DCD007F11800FEF74BFFD7E78146A6F871
:103140000290B068C06A00EB800058F820000128A7
:1031500088BF0124306B002818BF01242046BDE839
:10316000F08700000000000070B588B140F27805DB
:10317000C2F20045A96881420CD04FF0500080F3A4
:103180001188BFF36F8FBFF34F8F00BFFEE700BF03
:10319000002070BD016D29B3013901654FF00001B8
:1031A0001DD1C26AC36C9A4219D0041D064620463E
:1031B000FEF70EFFF06CF062C0F138013183A96AAE
:1031C000884240F2702188BFA86200EB8000C2F202
:1031D000004101EB80002146FEF772FF0121084605
:1031E00070BD00BF4FF0500080F31188BFF36F8FA8
:1031F000BFF34F8FFEE7000070B5C068C5686DB1C2
:1032000005F118042046FEF7E3FE40F27806C2F20C
:103210000046F06960B106F160001AE04FF050001E
:1032200080F31188BFF36F8FBFF34F8FFEE700BFAE
:103230002C1D2046FEF7CCFEE86AB16A884240F2B7
:10324000702188BFB06200EB8000C2F2004101EB48
:1032500080002146FEF734FFE86AB168C96A8842F7
:1032600002D90120306370BD002070BD0000000055
:103270002DE9F04140F27805C2F20045E86968B1F5
:10328000FEF73AFFE8690138E861E86980B1002497
:10329000FEF75AFF2046BDE8F08100BF4FF0500016
:1032A00080F31188BFF36F8FBFF34F8FFEE700BF2E
:1032B00068690028EBD0286E88B340F270264FF082
:1032C0000108C2F2004600BFE86EC76807F11800A7
:1032D000FEF77EFE3C1D2046FEF77AFEF86AA96ADC
:1032E0008842214688BFA86200EB800006EB800080
:1032F000FEF7E6FEF86AA968C96A884228BFC5F8E1
:103300003080286E0028DFD1286A006820B1286A42
:10331000C068C068808801E04FF6FF706880AC88A4
:1033200054B10126FFF79CFE013C002818BF2E6314
:103330002004F7D10020A880286B0028A7D04EF6E3
:1033400004504FF08051CEF2000001240160BFF321
:103350004F8FBFF36F8FFEF7F7FE2046BDE8F08179
:1033600070B586B0FEF7C8FE40F2EC06C2F2004629
:10337000706808BB06F114042046FEF75DFE06F1F6
:1033800028052846FEF758FE40F2801240F220231E
:10339000C2F20042C2F200430A201021C6E90345EE
:1033A00000250095FFF784FA706028B143F2704160
:1033B000C0F60001FEF768FFFEF7C6FE7068D8B1E0
:1033C000002004A9CDE9040005A803AAFEF724FE05
:1033D000DDE9032002210023CDE9001041F6911020
:1033E0000AA1C0F60000059D0295FFF7DDFDB06063
:1033F00010B1012006B070BD4FF0500080F311886D
:10340000BFF36F8FBFF34F8FFEE700BF546D722085
:1034100053766300F1EE100A4FF6FF71C0F2C0312F
:1034200020EA010040F04070E1EE100A7047000011
:10343000000001020304010203040607080900005A
:1034400064340008000000000000000000000000DC
:103450000000000000020000180000000000000052
:103460000000000064656661756C745461736B00E4
:10347000546D7251000000009834000800000024D0
:1034800018000000FC020008B034000818000024F6
:10349000B84F00001C0300080100000010000000ED
:1034A0000090D0030090D003AAAAAAAA00000000AE
:040000050800029954
:00000001FF
